:020000040800F2
:1000000000000220ED4200083D4300083D43000887
:100010003D4300083D4300083D4300080000000048
:10002000000000000000000000000000E1190008CE
:100030003D43000800000000211C0008891C000846
:100040003D4300083D4300083D4300083D43000890
:10005000000000003D430008C13F00083D43000888
:100060003D4300083D4300083D4300083D43000870
:100070003D4300083D4300083D4300083D43000860
:100080003D4300083D4300083D4300083D43000850
:100090003D4300083D4300083D4300083D43000840
:1000A0003D4300083D4300083D4300083D43000830
:1000B0003D4300083D4300083D4300083D43000820
:1000C0003D4300083D4300083D4300083D43000810
:1000D0003D4300083D430008D93F00083D43000868
:1000E0003D4300083D4300083D4300083D430008F0
:1000F0003D4300083D4300083D4300083D430008E0
:100100003D4300083D4300083D4300083D430008CF
:100110003D4300083D4300083D4300083D430008BF
:100120003D4300083D4300083D4300083D430008AF
:100130003D4300083D4300083D4300083D4300089F
:100140003D4300083D4300083D4300083D4300088F
:100150003D4300083D4300083D4300083D4300087F
:100160003D4300083D4300083D4300083D4300086F
:100170003D4300083D4300083D4300083D4300085F
:100180003D4300083D43000800000000000000005F
:10019000000000000000000000000000000000005F
:0801A0003D4300083D43000847
:1001B00010B5054C237833B9044B13B10448AFF3A1
:1001C00000800123237010BD5404002000000000B3
:1001D000284B000808B5034B1BB103490348AFF394
:1001E000008008BD0000000058040020284B0008D3
:1001F000844641EA000313F003036DD1403A41D332
:1002000051F8043B40F8043B51F8043B40F8043BF0
:1002100051F8043B40F8043B51F8043B40F8043BE0
:1002200051F8043B40F8043B51F8043B40F8043BD0
:1002300051F8043B40F8043B51F8043B40F8043BC0
:1002400051F8043B40F8043B51F8043B40F8043BB0
:1002500051F8043B40F8043B51F8043B40F8043BA0
:1002600051F8043B40F8043B51F8043B40F8043B90
:1002700051F8043B40F8043B51F8043B40F8043B80
:10028000403ABDD2303211D351F8043B40F8043B20
:1002900051F8043B40F8043B51F8043B40F8043B60
:1002A00051F8043B40F8043B103AEDD20C3205D330
:1002B00051F8043B40F8043B043AF9D2043208D028
:1002C000D2071CBF11F8013B00F8013B01D30B889A
:1002D00003806046704700BF082A13D38B078DD078
:1002E00010F003038AD0C3F10403D21ADB071CBF4A
:1002F00011F8013B00F8013B80D331F8023B20F8B4
:10030000023B7BE7043AD9D3013A11F8013B00F8EC
:10031000013BF9D20B7803704B7843708B78837074
:100320006046704700000000000000000000000070
:1003300001F0FF01102A2BDB10F0070F08D010F896
:10034000013B013A8B422DD010F0070F42B3F6D19A
:10035000F0B441EA012141EA014122F007047FF0B3
:1003600000070023F0E80256083C85EA010586EA0A
:10037000010685FA47F5A3FA87F586FA47F6A5FA46
:1003800087F68EB9EED1F0BC01F0FF0102F0070252
:1003900032B110F8013B013A83EA010313B1F8D1FD
:1003A0000020704701387047002D06BF35460338DE
:1003B000073815F0010F07D1013015F4807F02BF17
:1003C000013015F4C03F0130F0BC0138704700BF68
:1003D00080B485B000AF78600023FB730023BB734B
:1003E0000F237B737B68DB78002B39D0274BDB68CE
:1003F000DB431B0ADBB203F00703FB73FB7BC3F198
:100400000403BB737A7BFB7B42FA03F37B737B6849
:100410005B781A46BB7B02FA03F3FB737B689A781E
:100420007B7B1340DAB2FB7B1343FB73FB7B1B012B
:10043000FB73174A7B681B781344FA7B83F800230D
:100440007B681B7803F01F0311497A681278520900
:10045000D2B21046012202FA03F341F820300FE035
:100460007B681B7803F01F0309497A6812785209E8
:10047000D2B2104601229A4000F1200341F8232015
:1004800000BF1437BD465DF8047B704700ED00E007
:1004900000E100E080B485B000AF78600023FB602D
:1004A000344BFB607B689B79002B4FD0314B1A6833
:1004B0007B681B68DB432F4913400B602D4B5A6848
:1004C0007B681B68DB432B4913404B607B681B79BF
:1004D0001A46FB681344FB60FB6819687B681A685E
:1004E000FB680A431A60234B9A687B681B68DB43EE
:1004F000204913408B601F4BDA687B681B68DB4325
:100500001C491340CB607B685B79102B0ED1194BD3
:100510009A687B681B68174913438B60154BDA6830
:100520007B681B6813491343CB601DE0114BFB60D4
:100530007B685B791A46FB681344FB60FB681968AB
:100540007B681A68FB680A431A600DE07B681B79B8
:100550001A46FB681344FB60FB6819687B681B68DC
:10056000DA43FB680A401A6000BF1437BD465DF8E5
:10057000047B7047003C014080B483B000AF7860DA
:10058000044A7B68536100BF0C37BD465DF8047BAD
:10059000704700BF003C014080B487B000AF786076
:1005A000396000237B6100233B610023FB60002353
:1005B0007B6176E001227B6902FA03F33B613B68D1
:1005C0001B683A691340FB60FA683B699A4265D13F
:1005D0007B681A687B695B00032101FA03F3DB4344
:1005E0001A407B681A607B681A683B681B79194659
:1005F0007B695B0001FA03F31A437B681A603B686E
:100600001B79012B03D03B681B79022B2ED17B6811
:100610009A687B695B00032101FA03F3DB431A400C
:100620007B689A607B689A683B685B7919467B694E
:100630005B0001FA03F31A437B689A607B685A688F
:100640007B699BB2194601238B40DB431A407B68D0
:100650005A607B685B683A68927911467A6992B20F
:1006600001FA02F292B21A437B685A607B68DA6838
:100670007B699BB25B00032101FA03F3DB431A4061
:100680007B68DA607B68DA683B68DB7919467B69EE
:100690005B0001FA03F31A437B68DA607B6901337C
:1006A0007B617B690F2B85D900BF1C37BD465DF888
:1006B000047B704780B485B000AF78600B467B80C8
:1006C00013467B700023FB600023BB607A787B8835
:1006D00003F007039B0002FA03F3FB607B88DB084F
:1006E0009BB21A467B68083253F822207B8803F0BD
:1006F00007039B000F2101FA03F3DB437988C90844
:1007000089B2084602EA03017B6800F1080243F857
:1007100022107B88DB089BB21A467B68083253F8AC
:100720002230FA681343BB607B88DB089BB21A4611
:100730007B680832B96843F8221000BF1437BD4601
:100740005DF8047B7047000080B400AF164B1B6857
:10075000154A43F001031360134B00229A60124BB9
:100760001B68114A23F0A85323F4102313600E4B87
:100770000E4A5A600C4B0E4AC3F884200A4B0D4AAD
:10078000C3F88820084B1B68074A23F480231360B2
:10079000054B0022DA60044B0022C3F88C2000BF16
:1007A000BD465DF8047B70470038024010300024DD
:1007B000003000200030002480B489B000AF7860A1
:1007C0000023BB6100237B610023FB6102233B61AB
:1007D0000023FB600223BB60474B9B6803F00C03C4
:1007E000BB61BB69042B07D0082B09D0002B3DD17E
:1007F0007B68424A1A603DE07B68414A1A6039E0F2
:100800003D4B5B689B0D03F00103FB603A4B5B685B
:1008100003F03F03BB60FB68002B0CD0384ABB6879
:10082000B2FBF3F3344A52689209C2F3080202FBA6
:1008300003F3FB610BE0314ABB68B2FBF3F32E4AD2
:1008400052689209C2F3080202FB03F3FB612A4BD0
:100850005B681B0C03F0030301335B003B61FA6927
:100860003B69B2FBF3F27B681A6003E07B68234AC2
:100870001A6000BF204B9B6803F0F003BB61BB69AB
:100880001B09BB611F4ABB6913441B78DBB27B6148
:100890007B681A687B69DA407B685A60164B9B68F4
:1008A00003F4E053BB61BB699B0ABB61154ABB699A
:1008B00013441B78DBB27B617B685A687B69DA4042
:1008C0007B689A600C4B9B6803F46043BB61BB6917
:1008D0005B0BBB610B4ABB6913441B78DBB27B61CA
:1008E0007B685A687B69DA407B68DA6000BF24372E
:1008F000BD465DF8047B7047003802400024F400D8
:1009000040787D010000002080B483B000AF7860A3
:100910000B46FB70FB78002B06D00A4B1A6B09497B
:100920007B6813430B6306E0064B1A6B7B68DB4363
:10093000044913400B6300BF0C37BD465DF8047BD0
:10094000704700BF0038024080B483B000AF7860C9
:100950000B46FB70FB78002B06D00A4B1A6C09493A
:100960007B6813430B6406E0064B1A6C7B68DB4321
:10097000044913400B6400BF0C37BD465DF8047B8F
:10098000704700BF0038024080B483B000AF786089
:100990000B46FB70FB78002B06D00A4B5A6C0949BA
:1009A0007B6813434B6406E0064B5A6C7B68DB4361
:1009B000044913404B6400BF0C37BD465DF8047B0F
:1009C000704700BF0038024080B485B000AF0346D6
:1009D0000A46FB711346BB710023FB60BB7903F031
:1009E00003039B000F2202FA03F3FB60164ABB7954
:1009F0009B08DBB2023352F82320FB68DB4312482A
:100A0000B9798908C9B21A408B1C40F823200E4AD4
:100A1000BB799B08DBB2023352F82320F979BB790A
:100A200003F003039B0001FA03F30748B97989082F
:100A3000C9B21A438B1C40F8232000BF1437BD46AF
:100A40005DF8047B704700BF0038014080B58AB074
:100A500000AF7860396000237B6200233B62002393
:100A6000FB610023BB617B681B8A9BB27B627B6A54
:100A700023F440537B623B68DB881A467B6A13434E
:100A80007B627B6A9AB27B681A827B689B899BB285
:100A90007B627B6A23F4B05323F00C037B623B68D8
:100AA0009A883B681B8913439AB23B685B8913435E
:100AB0009BB21A467B6A13437B627B6A9AB27B685D
:100AC0009A817B689B8A9BB27B627B6A23F440732A
:100AD0007B623B689B891A467B6A13437B627B6A15
:100AE0009AB27B689A8207F108031846FFF764FE02
:100AF0007B68304A934203D07B682F4A934202D1ED
:100B00007B693B6201E03B693B627B689B899BB2EE
:100B10001BB2002B0CDA3A6A13469B0013449A006E
:100B20001A443B681B685B00B2FBF3F3FB610BE00C
:100B30003A6A13469B0013449A001A443B681B68A8
:100B40009B00B2FBF3F3FB61FB691C4AA2FB03238E
:100B50005B091B017B627B6A1B09642202FB03F3B6
:100B6000FA69D31ABB617B689B899BB21BB2002BCD
:100B70000CDABB69DB003233104AA2FB03235B09AA
:100B800003F007037A6A13437B620BE0BB691B0126
:100B900032330A4AA2FB03235B0903F00F037A6A8C
:100BA00013437B627B6A9AB27B681A8100BF283745
:100BB000BD4680BD00100140001401401F85EB516F
:100BC00080B483B000AF78600B46FB70FB78002BDD
:100BD00008D07B689B899BB243F400539AB27B6830
:100BE0009A8107E07B689B899BB223F400539AB2F9
:100BF0007B689A8100BF0C37BD465DF8047B704767
:100C000080B483B000AF78600B467B807B88C3F3F1
:100C100008039AB27B689A8000BF0C37BD465DF826
:100C2000047B704780B483B000AF78607B689B889A
:100C30009BB2C3F308039BB218460C37BD465DF860
:100C4000047B704780B487B000AF78600B467B8030
:100C500013467B7000233B610023FB600023BB60D5
:100C600000237B617B687B617B88DBB25B09DBB245
:100C70003B617B8803F01F03FB600122FB6802FAE3
:100C800003F3BB603B69012B03D17B690C337B61B0
:100C900009E03B69022B03D17B6910337B6102E0E1
:100CA0007B6914337B617B78002B06D07B691968E4
:100CB0007B69BA680A431A6006E07B691968BB68F9
:100CC000DA437B690A401A6000BF1C37BD465DF8F5
:100CD000047B704780B485B000AF78600B467B80A2
:100CE0000023FB737B681B889AB27B8813409BB2FE
:100CF000002B02D00123FB7301E00023FB73FB7B7D
:100D000018461437BD465DF8047B704780B487B041
:100D100000AF78600B467B800023FB6000237B6183
:100D20000023BB600023FB747B88DBB25B09DBB272
:100D3000BB607B8803F01F037B6101227B6902FAA1
:100D400003F37B61BB68012B07D17B689B899BB256
:100D50001A467B6913407B6111E0BB68022B07D107
:100D60007B681B8A9BB21A467B6913407B6106E055
:100D70007B689B8A9BB21A467B6913407B617B88A8
:100D80001B0A9BB2FB600122FB6802FA03F3FB60C3
:100D90007B681B889BB21A46FB681340FB607B692B
:100DA000002B05D0FB68002B02D00123FB7401E06F
:100DB0000023FB74FB7C18461C37BD465DF8047BA2
:100DC000704780B483B000AF78607B6803F108029D
:100DD0007B685A607B684FF0FF329A607B6803F152
:100DE00008027B68DA607B6803F108027B681A619D
:100DF0007B6800221A6000BF0C37BD465DF8047B9B
:100E0000704780B483B000AF78607B6800221A61BD
:100E100000BF0C37BD465DF8047B704780B485B0D9
:100E200000AF786039607B685B68FB603B68FA689C
:100E30005A60FB689A683B689A60FB689B683A68EE
:100E40005A60FB683A689A603B687A681A617B6806
:100E50001B685A1C7B681A6000BF1437BD465DF8DA
:100E6000047B704780B485B000AF786039603B6820
:100E70001B68BB60BB68B3F1FF3F03D17B681B6994
:100E8000FB600CE07B680833FB6002E0FB685B689A
:100E9000FB60FB685B681B68BA689A42F6D2FB6825
:100EA0005A683B685A603B685B683A689A603B687E
:100EB000FA689A60FB683A685A603B687A681A6117
:100EC0007B681B685A1C7B681A6000BF1437BD46DC
:100ED0005DF8047B704780B485B000AF78607B68B4
:100EE0001B69FB607B685B687A6892689A607B68C4
:100EF0009B687A6852685A60FB685B687A689A42B5
:100F000003D17B689A68FB685A607B6800221A618B
:100F1000FB681B685A1EFB681A60FB681B68184652
:100F20001437BD465DF8047B704780B58CB004AFC4
:100F3000F860B9603B601346FB80FB889B00184655
:100F400000F036FF78617B69002B0ED0582000F04E
:100F50002FFFF861FB69002B03D0FB697A691A63E4
:100F600005E0786900F0ECFF01E00023FB61FB691C
:100F7000002B13D0FA8800230393FB690293FB6ACA
:100F80000193BB6A00933B68B968F86800F00EF8FB
:100F9000F86900F099F80123BB6102E04FF0FF33DC
:100FA000BB61BB6918462037BD4680BD80B588B09F
:100FB00000AFF860B9607A603B603B6B186B7B6890
:100FC0009B001A46A52103F011FA3B6B1A6B7B6854
:100FD00003F18043013B9B001344BB61BB6923F0D9
:100FE0000703BB61BB6903F00703002B09D04FF077
:100FF000500383F31188BFF36F8FBFF34F8F7B6173
:10100000FEE7BB68002B1FD00023FB6112E0BA682B
:10101000FB69134419783A6BFB69134434330A466D
:101020001A70BA68FB6913441B78002B06D0FB6961
:101030000133FB61FB69092BE9D900E000BF3B6B81
:10104000002283F83D2003E03B6B002283F834202C
:10105000BB6A042B01D90423BB623B6BBA6ADA6218
:101060003B6BBA6A9A643B6B0022DA643B6B0433D5
:101070001846FFF7C6FE3B6B18331846FFF7C1FE54
:101080003B6B3A6B1A61BB6AC3F105023B6B9A6119
:101090003B6B3A6B5A623B6B00221A653B6B00223A
:1010A00083F854203A68F968B86900F037FC0246C2
:1010B0003B6B1A60FB6A002B02D0FB6A3A6B1A602A
:1010C00000BF2037BD4680BDB0B584B002AF7860A8
:1010D00000F04CFD3B4B1B6801333A4A13603A4B1E
:1010E0001B68002B09D1384A7B681360354B1B689D
:1010F000012B10D100F0FEFA0DE0344B1B68002BE1
:1011000009D1314B1B68DA6A7B68DB6A9A4202D8E4
:101110002D4A7B6813602E4B1B6801332C4A1360E9
:101120002B4B1A687B681A647B68002B16D07B688F
:10113000184602F0E7F978687B6803F134017B68B0
:10114000DA6A7B681B6B1D467B681B681C467B68E4
:101150001B6BE31A00932B4601F0B6F87B68184628
:1011600002F058FA7B68DB6A01229A40194B1B682F
:101170001343184A13607B68DA6A13469B001344D2
:101180009B00154A1A447B68043319461046FFF742
:1011900045FE00F019FD0D4B1B68002B0ED00A4BCD
:1011A0001B68DA6A7B68DB6A9A4207D20B4B4FF006
:1011B00080521A60BFF34F8FBFF36F8F00BF0837A5
:1011C000BD46B0BD48050020700400205405002035
:1011D00064050020500500207404002004ED00E0A8
:1011E00080B584B000AF78600023FB607B68002B83
:1011F0001AD0154B1B68002B09D04FF0500383F316
:101200001188BFF36F8FBFF34F8FBB60FEE700F015
:1012100075F87968232001F07FFD0021786800F0DF
:1012200005FB00F079F8F860FB68002B07D1074B4D
:101230004FF080521A60BFF34F8FBFF36F8F00BF24
:101240001037BD4680BD00BF7005002004ED00E0F2
:1012500080B586B002AF224B019300230093002398
:10126000822220492048FFF760FEF860FB68012BCE
:1012700023D14FF0500383F31188BFF36F8FBFF377
:101280004F8FBB60194B4FF0FF321A60184B012291
:101290001A60184B00221A60174B1A68104B1B6813
:1012A0009A4202D102F012F904E0134B1B6818466F
:1012B00002F06CF900F0BCFB0DE0FB68B3F1FF3FFE
:1012C00009D14FF0500383F31188BFF36F8FBFF341
:1012D0004F8F7B60FEE700BF1037BD4680BD00BF6B
:1012E0006C050020404B0008C5160008680500206A
:1012F000540500204C0500207004002080B400AF8D
:10130000044B1B680133034A136000BFBD465DF800
:10131000047B70477005002080B584B000AF0023C7
:10132000FB600023BB60434B1B68002B09D14FF0CF
:10133000500383F31188BFF36F8FBFF34F8F3B6070
:10134000FEE700F013FC3B4B1B68013B394A13607E
:10135000384B1B68002B65D1374B1B68002B61D0C5
:1013600032E0364BDB68DB68FB60FB6818331846FD
:10137000FFF7B1FDFB6804331846FFF7ACFDFB68CF
:10138000184602F047F9FB68DB6A01229A402C4BB1
:101390001B6813432A4A1360FB68DA6A13469B00F2
:1013A00013449B00274A1A44FB680433194610462D
:1013B000FFF734FDFB68DA6A234B1B68DB6A9A424D
:1013C00002D3224B01221A601C4B1B68002BC8D190
:1013D000FB68002B01D000F009FA1D4B1B687B60F5
:1013E0007B68002B10D000F049F80346002B02D098
:1013F000164B01221A607B68013B7B607B68002BE7
:10140000F1D1134B00221A60104B1B68002B09D03E
:101410000123BB600F4B4FF080521A60BFF34F8F18
:10142000BFF36F8F00F0D0FBBB6818461037BD4686
:1014300080BD00BF70050020480500200805002081
:101440005005002074040020700400205C0500207A
:101450005805002004ED00E080B582B000AF00F038
:1014600069FC00237B60044B1B683B603B681846AB
:101470000837BD4680BD00BF4C05002080B586B052
:1014800000AF00237B61504B1B68002B40F0918024
:101490004E4B1B6801333B614C4A3B6913603B690F
:1014A000002B1FD14A4B1B681B68002B09D04FF043
:1014B000500383F31188BFF36F8FBFF34F8F3B60EF
:1014C000FEE7434B1B68FB60424B1B68404A1360BE
:1014D000404AFB681360404B1B6801333E4A13606F
:1014E00000F084F93D4B1B683A699A424CD3384B63
:1014F0001B681B68002B04D1384B4FF0FF321A6079
:1015000042E0334B1B68DB68DB68BB60BB685B6831
:101510007B603A697B689A4203D2304A7B681360E9
:1015200032E0BB6804331846FFF7D5FCBB689B6A02
:10153000002B04D0BB6818331846FFF7CCFCBB68FF
:10154000184602F067F8BB68DB6A01229A40244B18
:101550001B681343224A1360BB68DA6A13469B0078
:1015600013449B001F4A1A44BB68043319461046B3
:10157000FFF754FCBB68DA6A1B4B1B68DB6A9A42B4
:10158000B5D301237B61B2E7174B1B68DA6A1549B3
:1015900013469B0013449B000B441B68012B01D98D
:1015A00001237B61114B1B68002B07D001237B615A
:1015B00004E00F4B1B6801330D4A13607B6918462A
:1015C0001837BD4680BD00BF700500204C050020C7
:1015D00000050020040500206005002068050020AB
:1015E0005005002074040020700400205C050020D9
:1015F0005805002080B586B000AF2C4B1B68002B2F
:1016000003D02B4B01221A604CE0294B00221A60B8
:10161000284B1B68FB60FB68B3FA83F3FB72FB7A11
:10162000C3F11F037B6124497A6913469B0013446D
:101630009B000B441B68002B09D14FF0500383F330
:101640001188BFF36F8FBFF34F8F7B60FEE77A691E
:1016500013469B0013449B00174A13443B613B69AC
:101660005B685A683B695A603B695A683B69083352
:101670009A4204D13B695B685A683B695A603B698E
:101680005B68DB680D4A13600C4B1A680C4B1B68D7
:101690009A4202D101F01AFF04E0084B1B68184679
:1016A00001F074FF00BF1837BD4680BD70050020F3
:1016B0005C05002050050020740400207004002008
:1016C0006C05002080B582B000AF786000F052F861
:1016D000064B1B68012BF9D9054B4FF080521A605D
:1016E000BFF34F8FBFF36F8FF0E700BF740400208C
:1016F00004ED00E080B582B000AF00237B600CE019
:101700007A6813469B0013449B00124A1344184600
:10171000FFF757FB7B6801337B607B68042BEFD9B5
:101720000D48FFF74EFB0D48FFF74BFB0C48FFF74A
:1017300048FB0C48FFF745FB0B48FFF742FB0B4B00
:10174000054A1A600A4B054A1A6000BF0837BD46B1
:1017500080BD00BF74040020D8040020EC040020E9
:10176000080500201C05002034050020000500208D
:101770000405002080B582B000AF19E000F0F6F952
:101780000F4BDB68DB687B607B6804331846FFF730
:10179000A2FB0C4B1B68013B0A4A13600A4B1B68F7
:1017A000013B094A136000F00FFA786800F00EF868
:1017B000054B1B68002BE1D100BF0837BD4680BD3B
:1017C0001C050020480500203005002080B582B0AF
:1017D00000AF78607B681B6B184600F0B1FB78683F
:1017E00000F0AEFB00BF0837BD4680BD80B483B0BB
:1017F00000AF0C4B1B681B68002B04D10A4B4FF049
:10180000FF321A6008E0074B1B68DB68DB687B600F
:101810007B685B68044A136000BF0C37BD465DF807
:10182000047B7047000500206805002080B584B067
:1018300000AF78603960324B1B68FB60314B1B682E
:1018400004331846FFF747FB0346002B0BD12D4B03
:101850001B68DB6A012202FA03F3DA432A4B1B6896
:101860001340294A13607B68B3F1FF3F10D13B68F6
:10187000002B0DD0234B1B681B21184601F00EFFD7
:10188000204B1B68043319462048FFF7C7FA32E0A3
:10189000FA687B681344BB601A4B1B68BA685A60CD
:1018A000BA68FB689A420FD2164B1B68042118468F
:1018B00001F0F4FE164B1A68124B1B6804331946EC
:1018C0001046FFF7CFFA16E00E4B1B6804211846AE
:1018D00001F0E4FE0F4B1A680A4B1B6804331946EB
:1018E0001046FFF7BFFA0C4B1B68BA689A4202D247
:1018F000094ABB68136000BF1037BD4680BD00BFFA
:101900004C05002070040020500500203405002004
:1019100004050020000500206805002080B485B083
:1019200000AFF860B9607A60FB68043BFB60FB685D
:101930004FF080721A60FB68043BFB60BB6823F0C9
:101940000102FB681A60FB68043BFB600C4AFB6801
:101950001A60FB68143BFB607A68FB681A60FB68DE
:10196000043BFB60FB686FF002021A60FB68203BDF
:10197000FB60FB6818461437BD465DF8047B704772
:101980008519000880B485B000AF00237B60114B3F
:101990001B68B3F1FF3F09D04FF0500383F3118868
:1019A000BFF36F8FBFF34F8FFB60FEE74FF0500325
:1019B00083F31188BFF36F8FBFF34F8FBB6000BFFE
:1019C0007B68002BFCD000BF1437BD465DF8047B5C
:1019D000704700BF10000020000000000000000061
:1019E000074B19680868B0E8F04F80F30988BFF327
:1019F0006F8F4FF0000080F311887047AFF30080C5
:101A00007004002000BF00BF08480068006880F331
:101A100008884FF0000080F3148862B661B6BFF307
:101A20004F8FBFF36F8F00DF00BF00BF08ED00E0F6
:101A300080B586B000AF444B1B68444A934209D13D
:101A40004FF0500383F31188BFF36F8FBFF34F8FB5
:101A50003B61FEE73C4B1B683D4A934209D14FF086
:101A6000500383F31188BFF36F8FBFF34F8FFB6079
:101A7000FEE7384B7B617B691B78DBB27B607B695F
:101A8000FF221A707B691B78DBB2FB70FB78DBB23C
:101A900003F05003DAB2304B1A70304B07221A6051
:101AA00009E02E4B1B68013B2C4A1360FB78DBB22C
:101AB0005B00DBB2FB70FB78DBB203F08003802BB2
:101AC000EFD0264B1B68C3F10703042B09D04FF05E
:101AD000500383F31188BFF36F8FBFF34F8FBB6049
:101AE000FEE71E4B1B681B021C4A13601B4B1B6846
:101AF00003F4E063194A13607B68DAB27B691A70F9
:101B0000174B1B68164A43F470031360144B1B6891
:101B1000134A43F07043136000F0DEF8114B0022CB
:101B20001A6000F0FDF8104B1B680F4A43F0404369
:101B30001360FFF769FFFFF75DFDFFF723FF002349
:101B400018461837BD4680BD00ED00E071C20F4158
:101B500070C20F4100E400E0740500207805002009
:101B600020ED00E01000002034EF00E080B483B0EE
:101B700000AF4FF0500383F31188BFF36F8FBFF3B3
:101B80004F8F7B600E4B1B6801330D4A13600C4B6B
:101B90001B68012B0ED10B4B1B68DBB2002B09D04D
:101BA0004FF0500383F31188BFF36F8FBFF34F8F54
:101BB0003B60FEE700BF0C37BD465DF8047B704715
:101BC0001000002004ED00E080B483B000AF114BA2
:101BD0001B68002B09D14FF0500383F31188BFF32A
:101BE0006F8FBFF34F8F7B60FEE70A4B1B68013B93
:101BF000084A1360074B1B68002B04D100233B608D
:101C00003B6883F3118800BF0C37BD465DF8047B49
:101C1000704700BF1000002000000000000000001E
:101C2000EFF30980BFF36F8F154B1A681EF0100F8A
:101C300008BF20ED108A20E9F04F10602DE909005F
:101C40004FF0500080F31188BFF34F8FBFF36F8FB9
:101C5000FFF7D0FC4FF0000080F3118809BC196831
:101C60000868B0E8F04F1EF0100F08BFB0EC108A03
:101C700080F30988BFF36F8F704700BFAFF3008018
:101C80007004002000BF00BF80B582B000AF4FF0ED
:101C9000500383F31188BFF36F8FBFF34F8F7B60C7
:101CA00001F09AFBFFF7EAFB0346002B06D001F098
:101CB000F1FB084B4FF080521A6001E001F0CEFBBF
:101CC00000233B603B6883F3118800BF0837BD46A3
:101CD00080BD00BF04ED00E080B400AF0B4B0022DC
:101CE0001A600B4B00221A600A4B1B680A4AA2FBBF
:101CF00003239B09094A013B1360044B07221A6026
:101D000000BFBD465DF8047B704700BF10E000E0F7
:101D100018E000E014000020D34D621014E000E051
:101D2000DFF80C00016841F470010160704700BFEA
:101D300088ED00E080B485B000AFEFF30583FB6071
:101D4000FB680F2B13D9164AFB6813441B78FB72F0
:101D5000144B1B78FA7A9A4209D24FF0500383F35E
:101D60001188BFF36F8FBFF34F8F7B60FEE70E4B81
:101D70001B6803F4E0620D4B1B689A4209D94FF0CF
:101D8000500383F31188BFF36F8FBFF34F8F3B6016
:101D9000FEE700BF1437BD465DF8047B704700BF07
:101DA000F0E300E0740500200CED00E07805002071
:101DB00080B58AB000AF78600023FB61FFF79EFA20
:101DC000594B1B68002B01D100F01AF9574B1A68C8
:101DD0007B681340002B40F091807B68002B1CD067
:101DE00008227B6813447B607B6803F00703002BA9
:101DF00013D07B6823F0070308337B607B6803F014
:101E00000703002B09D04FF0500383F31188BFF371
:101E10006F8FBFF34F8F7B61FEE77B68002B6DD028
:101E2000434B1B687A689A4268D8424B3B62414BED
:101E30001B687B6204E07B6A3B627B6A1B687B6297
:101E40007B6A5B687A689A4203D97B6A1B68002BBD
:101E5000F1D1354B1B687A6A9A424FD03B6A1B68B6
:101E600008221344FB617B6A1A683B6A1A607B6A2A
:101E70005A687B68D21A08235B009A421ED97A6A94
:101E80007B681344BB61BB6903F00703002B09D0D7
:101E90004FF0500383F31188BFF36F8FBFF34F8F61
:101EA0003B61FEE77B6A5A687B68D21ABB695A605D
:101EB0007B6A7A685A60B86900F004F91C4B1A68AA
:101EC0007B6A5B68D31A1A4A1360194B1A681A4B5B
:101ED0001B689A4203D2164B1B68174A13607B6A31
:101EE0005A68124B1B681A437B6A5A607B6A00224D
:101EF0001A60124B1B680133104A1360FFF70CFA8B
:101F0000FB6903F00703002B09D04FF0500383F364
:101F10001188BFF36F8FBFF34F8FFB60FEE7FB6944
:101F200018462837BD4680BD8431012098310120F4
:101F3000883101207C3101208C3101209031012039
:101F400080B586B000AF78607B687B617B68002BD2
:101F50004BD008235B427A6913447B617B693B6108
:101F60003B695A68234B1B681340002B09D14FF083
:101F7000500383F31188BFF36F8FBFF34F8FFB6064
:101F8000FEE73B691B68002B09D04FF0500383F339
:101F90001188BFF36F8FBFF34F8FBB60FEE73B69C4
:101FA0005A68144B1B681340002B1ED03B691B68FA
:101FB000002B1AD13B695A680E4B1B68DB431A4051
:101FC0003B695A60FFF79AF93B695A680A4B1B68EC
:101FD0001344094A1360386900F074F8074B1B6812
:101FE0000133064A1360FFF797F900BF1837BD4663
:101FF00080BD00BF9831012088310120943101203B
:1020000080B485B000AF4FF49633BB60274BFB60C4
:10201000FB6803F00703002B0CD0FB680733FB6061
:10202000FB6823F00703FB60BA68FB68D31A1F4AFA
:102030001344BB60FB687B601D4A7B6813601C4BCC
:1020400000225A607B68BA681344FB600822FB6870
:102050009B1AFB60FB6823F00703FB60FB68154AD3
:102060001360144B1B6800225A60124B1B6800223D
:102070001A607B683B603B68FA68D21A3B685A601A
:102080000C4B1A683B681A603B685B680A4A13602D
:102090003B685B68094A1360094B4FF000421A60C5
:1020A00000BF1437BD465DF8047B70477C050020F7
:1020B0007C310120843101208C31012088310120C4
:1020C0009831012080B485B000AF7860284BFB6068
:1020D00002E0FB681B68FB60FB681B687A689A4239
:1020E000F7D8FB68BB60FB685B68BA6813447A6822
:1020F0009A4208D1FB685A687B685B681A44FB689F
:102100005A60FB687B607B68BB607B685B68BA6811
:102110001A44FB681B689A4218D1FB681A68154B71
:102120001B689A420DD07B685A68FB681B685B6825
:102130001A447B685A60FB681B681A687B681A60DF
:1021400008E00C4B1A687B681A6003E0FB681A68A9
:102150007B681A60FA687B689A4202D0FB687A68EA
:102160001A6000BF1437BD465DF8047B704700BF9E
:102170007C3101208431012080B500AF034801F09B
:10218000D7F8034801F0D4F800BF80BD484B0008E1
:102190008C4B000880B500AF064B1868054B1968DA
:1021A000054B064A00F04CFD4FF0005000F086FD54
:1021B00000BF80BD1400002079210008F44B000806
:1021C000F0B585B002AF00237B6034E01E497A6829
:1021D00013469B0013449B000B4418681A497A6805
:1021E00013469B0013449B000B4404331C681649A0
:1021F0007A6813469B0013449B000B4408331D6808
:1022000011497A6813469B0013449B000B440C331E
:102210001E680D497A6813469B0013449B000B44CB
:1022200010331B68009333462A46214600F0B4F869
:102230007B6801337B60054B1B687A689A42C5D383
:1022400000BF0C37BD46F0BD9C3101203C3201205F
:10225000F0B583B000AFFFF7FFF803464FF000047E
:10226000C7E90034D7E900562B4634464FF0000149
:102270004FF00002620142EAD36259010B46144654
:102280005B1B64EB06044FF000014FF00002A2005C
:1022900042EA937299000B4614465B1944EB06041C
:1022A0004FF000014FF00002E20042EA5372D90001
:1022B0000B461446C7E90034D7E9003418462146D6
:1022C0000C37BD46F0BD000080B586B002AFF860A7
:1022D000B9607A603B6005222B49B86802F054F877
:1022E0000346002B4BD0294B1B68072B03D92848EA
:1022F00001F010FB44E0254B1A68264913469B0069
:1023000013449B000B44FA681A60204B1A68214959
:1023100013469B0013449B000B440433BA681A60B5
:102320001A4B1A681B4913469B0013449B000B442D
:1023300008337A681A60154B1A68164913469B00D1
:1023400013449B000B440C333A681A600F4B1A6815
:10235000104913469B0013449B000B441033BA6989
:102360001A600A4B1B680133084A1360BB6900936B
:102370003B687A68B968F86800F00EF800E000BFC2
:102380001037BD4680BD00BF9C4B00083C32012089
:10239000A44B00089C31012080B58AB000AFF860E2
:1023A000B9607A603B6007F11403142200211846DB
:1023B00002F01CF8FB687B61BB68BB617B68FB615A
:1023C0003B683B623B6B7B6207F11403184600F0ED
:1023D000B5FE00BF2837BD4680BD000080B483B085
:1023E00000AF214B7B607B6803221A617B6803226C
:1023F0005A617B681D4A9A617B681D4ADA617B6875
:102400004FF480621A627B6800229A627B68002225
:102410005A627B680022DA627B68144A1A667B681B
:10242000144A5A667B6810229A667B6800221A67F3
:102430007B680022DA667B6800225A677B68073374
:102440000D4A106818607B680C4A10681860918803
:10245000927999809A717B6820229A7100BF0C371B
:10246000BD465DF8047B7047E0770120FC4B000817
:102470004032012040360120084C00080C4C000876
:1024800080B58AB000AFF860B9607A603C4B1B78C9
:10249000002B01D1FFF7A2FFFA6813465B0013443B
:1024A000DB006033364A1344BB61BB68FB61BB6928
:1024B0001B693B62BB69DB687B6100237B623A6A14
:1024C0007B699A422AD9BB699A683B6AD31A3B61F5
:1024D0003A697B68934228BF13463B61BB695A68DF
:1024E0003B6A13443A691946F869FDF781FE7A6A36
:1024F0003B6913447B62FA693B691344FB617A6868
:102500003B69D31A7B603A6A3B6913443B62BB69FF
:102510009B683A6A9A4201D100233B627A693B6A1E
:10252000D31A3B613A697B68934228BF13463B61EB
:102530003B69002B18D0BB695A683B6A13443A695F
:102540001946F869FDF754FE7A6A3B6913447B62C9
:10255000FA693B691344FB617A683B69D31A7B6073
:102560003A6A3B6913443B627B6A002B02D0BB6929
:102570003A6A1A617B6A18462837BD4680BD00BF9B
:10258000E077012080B58AB000AFF860B9607A606A
:10259000BB687B62FB685A1C13465B001344DB007C
:1025A0003F4A13443B623B6A1B69FB613B6ADB6841
:1025B000BB61FA69BB699A4254D83B6A9A68BB69A5
:1025C000D31A013B7B617A697B689A420FD33B6ADD
:1025D0005A68BB6913447A68796A1846FDF708FEA1
:1025E000BA697B681A443B6ADA60012354E07A696D
:1025F000FB6913447B617A697B689A424BD33B6ADF
:102600009A68BB69D31A3B613A697B689A420ED9D2
:102610003B6A5A68BB6913447A68796A1846FDF7C1
:10262000E7FDBA697B681A443B6ADA6018E03B6AE6
:102630005A68BB6913443A69796A1846FDF7D8FDB0
:102640003B6A58687A6A3B69D1187A683B69D31A41
:102650001A46FDF7CDFD7A683B69D21A3B6ADA600B
:10266000012319E0FA69BB69D31A013B7B617A69DE
:102670007B689A420FD33B6A5A68BB6913447A68F5
:10268000796A1846FDF7B4FDBA697B681A443B6A5B
:10269000DA60012300E0002318462837BD4680BDDC
:1026A000E077012080B586B000AFF860B9607A604D
:1026B0003B60304B1B78002B01D1FFF78FFE2D4B79
:1026C0001B691A46FB6893424CD2EFF311834FF01B
:1026D000200181F311883B61FB68002B32D0254932
:1026E000FB685A1C13465B001344DB000B44BA68BA
:1026F0001A602049FB685A1C13465B001344DB0038
:102700000B4404337A681A601A49FA6813465B006E
:102710001344DB000B4420333A681A601549FA6809
:1027200013465B001344DB000B44283300221A607D
:102730001049FA6813465B001344DB000B44243352
:1027400000221A600B49FA6813465B001344DB0051
:102750000B442C333A6A1A603B6983F311880023D7
:102760007B6102E04FF0FF337B617B6918461837CD
:10277000BD4680BDE077012080B586B000AFF8602F
:10278000B9607A603B60304B1B78002B01D1FFF7BA
:1027900025FE2D4B5B691A46FB6893424BD2EFF343
:1027A00011834FF0200181F311883B61FB68002BFE
:1027B00031D02549FA6813465B001344DB000B4413
:1027C0006033BA681A602049FA6813465B00134404
:1027D000DB000B4464337A681A601B49FA681346BD
:1027E0005B001344DB000B4468333A681A601649F7
:1027F000FA6813465B001344DB000B44703300227D
:102800001A601149FA6813465B001344DB000B445D
:102810006C3300221A600C49FA6813465B001344BB
:10282000DB000B4474333A6A1A603B6983F3118806
:1028300000237B6102E04FF0FF337B617B69184628
:102840001837BD4680BD00BFE077012080B487B057
:1028500000AFF860B9607A6000233B6102E03B6939
:1028600001333B61BA683B6913441B78002BF6D1F6
:102870003A697B689A4201D97B683B613B69FE2BD0
:1028800006D8FB685A1CFA603A69D2B21A7011E095
:10289000FB685A1CFA60FF221A70FB685A1CFA6027
:1028A0003A69D2B21A703B69190AFB685A1CFA607D
:1028B000CAB21A7000237B610AE0BA68531CBB607D
:1028C000FB68591CF96012781A707B6901337B61CF
:1028D0007A693B699A42F0D3FB6818461C37BD46BB
:1028E0005DF8047B704780B483B000AF78607B688C
:1028F000043318460C37BD465DF8047B704780B53D
:1029000082B000AFFB1C012219460120FFF7B8FD81
:1029100003467B607B68002B44DDFB78042B1AD0D8
:10292000042B06DC022B10D0022B11DC012B09D06A
:102930002DE0062B15D0062B10DB072B14D0802B97
:1029400015D024E000F07EFA31E000F037FB2EE0F5
:1029500000F012FD2BE000F0D7FC28E000F054FB63
:1029600025E000F099FF22E000F078FF1FE0FB1C5B
:10297000012219460120FFF783FD03467B607B6837
:10298000002B11DDFB78184600F0E8FE0CE0FB7828
:102990005BB2002B0ADAFB1C012219460120FFF76B
:1029A0006FFD03E000BF02E000BF00E000BF00BF1A
:1029B0000837BD4680BD000080B58CB000AF012354
:1029C0003B713B1D0133FB61FB69FB62304B5B6973
:1029D000BB620BE0BB6ADAB2FB6A591CF96262F0B7
:1029E0007F02D2B21A70BB6ADB09BB62BB6A7F2B63
:1029F000F0D8FB6A5A1CFA62BA6AD2B21A70FB6A41
:102A0000FB61244B1B68BB61214BDB68BA69D31A9D
:102A10007B61FB697B627B693B620BE03B6ADAB2FC
:102A20007B6A591C796262F07F02D2B21A703B6AEB
:102A3000DB093B623B6A7F2BF0D87B6A5A1C7A62C7
:102A40003A6AD2B21A707B6AFB61FA693B1DD31AEB
:102A50001A463B1D19460120FFF794FD03463B61D2
:102A60003B69002B09D00A4ABB69D360084B1B782D
:102A7000013BDAB2064B1A7004E0054B5B69013387
:102A8000034A53613B6918463037BD4680BD00BFDD
:102A90005C760120041000E080B58AB000AFF860D9
:102AA000B9607A60634B1B78012B10D0614B1B78A7
:102AB000002B00F0A1805F4B1B78022B09D1FFF7A0
:102AC0007BFF5C4B1B78012B40F0988001E000BF3E
:102AD00000E000BF7B681F2B09D8564BDA697B6882
:102AE00022FA03F303F00103002B40F089807B6896
:102AF000172B07D8FB68013BFB607B68DAB2FB68E9
:102B00001A703DE0BA68FB68D31AFB61FB697F2B42
:102B100012D9FB69DA09FB68013BFB60D2B2FB68A2
:102B20001A70FB69DBB2FA68013AFA6063F07F035E
:102B3000DAB2FB681A7006E0FB68013BFB60FB69D8
:102B4000DAB2FB681A707B687F2B12D97B68DA09CE
:102B5000FB68013BFB60D2B2FB681A707B68DBB29A
:102B6000FA68013AFA6063F07F03DAB2FB681A7020
:102B700006E0FB68013BFB607B68DAB2FB681A7019
:102B80002D4B1B68BB612B4BDB68BA69D31A7B6189
:102B9000BB687B627B693B620BE03B6ADAB27B6AB3
:102BA000591C796262F07F02D2B21A703B6ADB096B
:102BB0003B623B6A7F2BF0D87B6A5A1C7A623A6A86
:102BC000D2B21A707B6ABB60BA68FB68D31A1A4625
:102BD000F9680120FFF7D6FC03463B613B69002BF7
:102BE00003D0144ABB69D3600BE0124B1B7801334E
:102BF000DAB2104B1A7004E000BF02E000BF00E040
:102C000000BF0E4BD3F884200C4BD3F888309A4287
:102C10000BD0084B9B78002B07D1064B01229A70F2
:102C2000FFF76DFE034B00229A7000BF2837BD46A8
:102C300080BD00BF5C760120041000E0E077012039
:102C400080B586B002AFF860B9607A603B6000235F
:102C500000934FF48043144A14490120FFF722FDEA
:102C6000002300930823124A10490120FFF784FD36
:102C7000104B4FF080521A610F4B1B680D4AD36006
:102C80000C4A7B6813620B4AFB685360094ABB68B5
:102C90009360084A3B685362064B00221A7000BFDB
:102CA0001037BD4680BD00BF54360120204C0008BF
:102CB000547601205C760120041000E080B483B0DB
:102CC00000AF7860044A7B68136100BF0C37BD46D3
:102CD0005DF8047B704700BF5C76012080B584B04E
:102CE00000AF7860EFF311834FF0200181F311887A
:102CF000FB600848FFF7F7FDB8607A68B968B86804
:102D0000FFF7CAFEFB6883F3118800BF1037BD468A
:102D100080BD00BF8C76012080B588B000AF7860A0
:102D20003960EFF311834FF0200181F311887B614B
:102D30001648FFF7D8FD38613B69FB60FB68FB6113
:102D40003B68BB610BE0BB69DAB2FB69591CF961F6
:102D500062F07F02D2B21A70BB69DB09BB61BB694A
:102D60007F2BF0D8FB695A1CFA61BA69D2B21A708B
:102D7000FB69FB607A68F9683869FFF78DFE7B694B
:102D800083F3118800BF2037BD4680BD8C760120BB
:102D900080B58CB000AFF860B9607A60EFF3118352
:102DA0004FF0200181F31188FB612548FFF79BFD5F
:102DB000B861BB697B617B69FB62BB68BB620BE08E
:102DC000BB6ADAB2FB6A591CF96262F07F02D2B2C6
:102DD0001A70BB6ADB09BB62BB6A7F2BF0D8FB6A47
:102DE0005A1CFA62BA6AD2B21A70FB6A7B617B69BA
:102DF0007B627B683B620BE03B6ADAB27B6A591C00
:102E0000796262F07F02D2B21A703B6ADB093B62E0
:102E10003B6A7F2BF0D87B6A5A1C7A623A6AD2B23C
:102E20001A707B6A7B61FA687969B869FFF734FECA
:102E3000FB6983F3118800BF3037BD4680BD00BFFA
:102E40008C76012080B58CB000AF594B1B78002BDD
:102E500040F0AA80564B01221A70EFF311834FF015
:102E6000200181F31188FB600A2252490120FFF7FB
:102E700089FBFB6883F311880A20FFF72FFFEFF32C
:102E800011834FF0200181F31188BB604A48FFF79E
:102E90002AFD78607B683B603B68FB62444B5B6863
:102EA000BB620BE0BB6ADAB2FB6A591CF96262F0E2
:102EB0007F02D2B21A70BB6ADB09BB62BB6A7F2B8E
:102EC000F0D8FB6A5A1CFA62BA6AD2B21A70FB6A6C
:102ED0003B603B687B62364B9B683B620BE03B6A26
:102EE000DAB27B6A591C796262F07F02D2B21A7040
:102EF0003B6ADB093B623B6A7F2BF0D87B6A5A1C3A
:102F00007A623A6AD2B21A707B6A3B603B68FB61B4
:102F1000274B1B69BB610BE0BB69DAB2FB69591C2B
:102F2000F96162F07F02D2B21A70BB69DB09BB6142
:102F3000BB697F2BF0D8FB695A1CFA61BA69D2B21F
:102F40001A70FB693B603B687B6102233B610BE0CD
:102F50003B69DAB27B69591C796162F07F02D2B2B7
:102F60001A703B69DB093B613B697F2BF0D87B69B9
:102F70005A1C7A613A69D2B21A707B693B60182296
:102F800039687868FFF788FDBB6883F31188084BC0
:102F90005B6A002B02D0064B5B6A984700F0ECF9A5
:102FA00000F0B2F900F078FC00BF3037BD4680BDBC
:102FB0005C760120144C00088C76012080B582B02C
:102FC00000AFEFF311834FF0200181F311887B6094
:102FD0000B48FFF788FC38600A4B1B78002B07D0A2
:102FE0000B2239683868FFF757FD064B00221A702C
:102FF0007B6883F3118800BF0837BD4680BD00BFE2
:103000008C7601205C76012080B58CB000AFEFF3A8
:1030100011834FF0200181F31188FB604548FFF7D1
:1030200062FCB860BB687B607B68FB62424B5B689C
:10303000BB620BE0BB6ADAB2FB6A591CF96262F050
:103040007F02D2B21A70BB6ADB09BB62BB6A7F2BFC
:10305000F0D8FB6A5A1CFA62BA6AD2B21A70FB6ADA
:103060007B607B687B62344B9B683B620BE03B6A16
:10307000DAB27B6A591C796262F07F02D2B21A70AE
:103080003B6ADB093B623B6A7F2BF0D87B6A5A1CA8
:103090007A623A6AD2B21A707B6A7B607B68FB61A3
:1030A000254B1B69BB610BE0BB69DAB2FB69591C9C
:1030B000F96162F07F02D2B21A70BB69DB09BB61B1
:1030C000BB697F2BF0D8FB695A1CFA61BA69D2B28E
:1030D0001A70FB697B607B687B6102233B610BE0BC
:1030E0003B69DAB27B69591C796162F07F02D2B226
:1030F0001A703B69DB093B613B697F2BF0D87B6928
:103100005A1C7A613A69D2B21A707B697B601822C4
:103110007968B868FFF7C0FCFB6883F31188064B39
:103120005B6A002B02D0044B5B6A984700BF3037C4
:10313000BD4680BD8C7601205C76012080B592B0C2
:1031400000AF7860EFF311834FF0200181F3118815
:103150007B616B48FFF7C7FB38613B69FB60FB682D
:103160007B647B681A68674B1B69D31A9B083B64B6
:103170000BE03B6CDAB27B6C591C796462F07F0225
:10318000D2B21A703B6CDB093B643B6C7F2BF0D8EE
:103190007B6C5A1C7A643A6CD2B21A707B6CFB60FE
:1031A000FB68FB637B689B68BB630BE0BB6BDAB2BD
:1031B000FB6B591CF96362F07F02D2B21A70BB6BD1
:1031C000DB09BB63BB6B7F2BF0D8FB6B5A1CFA632C
:1031D000BA6BD2B21A70FB6BFB607B685B68202213
:1031E0001946F868FFF732FBF8600922F968386978
:1031F000FFF752FC3B69FB60FB687B637B681A68E6
:10320000404B1B69D31A9B083B630BE03B6BDAB264
:103210007B6B591C796362F07F02D2B21A703B6BF0
:10322000DB093B633B6B7F2BF0D87B6B5A1C7A63CB
:103230003A6BD2B21A707B6BFB60FB68FB627B68F7
:10324000DB68BB620BE0BB6ADAB2FB6A591CF9624D
:1032500062F07F02D2B21A70BB6ADB09BB62BB6A42
:103260007F2BF0D8FB6A5A1CFA62BA6AD2B21A7083
:10327000FB6AFB60FB687B627B681B693B620BE05F
:103280003B6ADAB27B6A591C796262F07F02D2B281
:103290001A703B6ADB093B623B6A7F2BF0D87B6A82
:1032A0005A1C7A623A6AD2B21A707B6AFB60FB6877
:1032B000FB610023BB610BE0BB69DAB2FB69591CFF
:1032C000F96162F07F02D2B21A70BB69DB09BB619F
:1032D000BB697F2BF0D8FB695A1CFA61BA69D2B27C
:1032E0001A70FB69FB601522F9683869FFF7D4FB97
:1032F0007B6983F3118800BF4837BD4680BD00BF9E
:103300008C7601205C76012080B500AF074B1B6AEC
:10331000002B08D0054B1B6A5B68002B03D0034BC6
:103320001B6A5B68984700BF80BD00BF5C760120C8
:1033300080B586B000AF7860EFF311834FF02001C5
:1033400081F311887B610B48FFF7CDFA3861802249
:1033500079683869FFF77AFAF8600E22F9683869F7
:10336000FFF79AFB7B6983F3118800BF1837BD46CE
:1033700080BD00BF8C76012090B583B000AF144BA8
:103380001B6A002B19D0124B1B6A1B68002B14D030
:103390000F4B1B6A1B689847C7E900013868D7E9DB
:1033A00000124FF000034FF00004130000241A46EF
:1033B00001460D20FFF7ECFC05E0064B1B681946A3
:1033C0000C20FFF7A9FC00BF0C37BD4690BD00BF25
:1033D0005C760120041000E080B586B000AFEFF30A
:1033E00011834FF0200181F31188FB601948FFF72A
:1033F0007AFAB860BB687B60174B1B68C3F308039D
:103400003B607B687B613B683B610BE03B69DAB208
:103410007B69591C796162F07F02D2B21A703B69F4
:10342000DB093B613B697F2BF0D87B695A1C7A61D1
:103430003A69D2B21A707B697B6002227968B868F7
:10344000FFF72AFBFB6883F3118800BF1837BD46DE
:1034500080BD00BF8C76012004ED00E080B582B015
:1034600000AFEFF311834FF0200181F311887B60EF
:103470000748FFF738FA3860032239683868FFF7E1
:103480000BFB7B6883F3118800BF0837BD4680BD06
:103490008C76012080B582B000AFEFF311834FF03E
:1034A000200181F311887B600748FFF71CFA386020
:1034B000122239683868FFF7EFFA7B6883F31188C6
:1034C00000BF0837BD4680BD8C76012080B582B034
:1034D00000AFEFF311834FF0200181F311887B607F
:1034E0000748FFF700FA3860112239683868FFF79B
:1034F000D3FA7B6883F3118800BF0837BD4680BDCF
:103500008C76012080B588B000AF7860EFF311832E
:103510004FF0200181F311887B611A48FFF7E3F92E
:1035200038613B69FB60184B1B697A68D31A9B08AA
:103530007B60FB68FB617B68BB610BE0BB69DAB257
:10354000FB69591CF96162F07F02D2B21A70BB6943
:10355000DB09BB61BB697F2BF0D8FB695A1CFA61A0
:10356000BA69D2B21A70FB69FB600822F96838693F
:10357000FFF792FA7B6983F3118800BF2037BD46BD
:1035800080BD00BF8C7601205C76012080B588B0BC
:1035900000AF7860EFF311834FF0200181F31188C1
:1035A0007B611A48FFF79FF938613B69FB60184B54
:1035B0001B697A68D31A9B087B60FB68FB617B6898
:1035C000BB610BE0BB69DAB2FB69591CF96162F0BF
:1035D0007F02D2B21A70BB69DB09BB61BB697F2B6A
:1035E000F0D8FB695A1CFA61BA69D2B21A70FB6949
:1035F000FB600422F9683869FFF74EFA7B6983F3B0
:10360000118800BF2037BD4680BD00BF8C760120E9
:103610005C76012080B588B000AF7860EFF311834D
:103620004FF0200181F311887B611A48FFF75BF9A5
:1036300038613B69FB60184B1B697A68D31A9B0899
:103640007B60FB68FB617B68BB610BE0BB69DAB246
:10365000FB69591CF96162F07F02D2B21A70BB6932
:10366000DB09BB61BB697F2BF0D8FB695A1CFA618F
:10367000BA69D2B21A70FB69FB600622F968386930
:10368000FFF70AFA7B6983F3118800BF2037BD4634
:1036900080BD00BF8C7601205C76012080B58AB0A9
:1036A00000AF78603960EFF311834FF0200181F3B0
:1036B00011887B612748FFF716F938613B69FB6089
:1036C000254B1B697A68D31A9B087B60FB687B6279
:1036D0007B683B620BE03B6ADAB27B6A591C796219
:1036E00062F07F02D2B21A703B6ADB093B623B6A2E
:1036F0007F2BF0D87B6A5A1C7A623A6AD2B21A706F
:103700007B6AFB60FB68FB613B68BB610BE0BB69EC
:10371000DAB2FB69591CF96162F07F02D2B21A7009
:10372000BB69DB09BB61BB697F2BF0D8FB695A1C05
:10373000FA61BA69D2B21A70FB69FB600722F968B4
:103740003869FFF7A9F97B6983F3118800BF28372F
:10375000BD4680BD8C7601205C76012080B58CB0A2
:1037600000AF0346FB713B4B1B68002B6DD0394B00
:103770001B68FB620023BB6208E0FB6A1B69FB62FB
:10378000FB6A002B07D0BB6A0133BB62FB79BA6AC4
:103790009A42F2D300E000BFFB6A002B55D0EFF352
:1037A00011834FF0200181F311887B612A48FFF7D4
:1037B0009AF838613B69FB60FB687B62FB793B628E
:1037C0000BE03B6ADAB27B6A591C796262F07F02D5
:1037D000D2B21A703B6ADB093B623B6A7F2BF0D89E
:1037E0007B6A5A1C7A623A6AD2B21A707B6AFB60B0
:1037F000FB68FB61FB6A9B68BB610BE0BB69DAB2EB
:10380000FB69591CF96162F07F02D2B21A70BB6980
:10381000DB09BB61BB697F2BF0D8FB695A1CFA61DD
:10382000BA69D2B21A70FB69FB60FB6A1B6880221E
:103830001946F868FFF70AF8F8601622F96838693F
:10384000FFF72AF97B6983F3118800BF3037BD4643
:1038500080BD00BF847601208C76012080B582B0C7
:1038600000AF0C4B1B68002B0FD00A4B1B687B6012
:103870007B68DB68002B02D07B68DB6898477B683D
:103880001B697B607B68002BF2D100BF0837BD4607
:1038900080BD00BF8476012080B586B000AFEFF315
:1038A00011834FF0200181F31188FB601748FFF767
:1038B0001AF8B860BB687B607B687B61144B1B782F
:1038C0003B610BE03B69DAB27B69591C796162F0BC
:1038D0007F02D2B21A703B69DB093B613B697F2BE7
:1038E000F0D87B695A1C7A613A69D2B21A707B6946
:1038F0007B601B227968B868FFF7CEF8FB6883F31A
:10390000118800BF1837BD4680BD00BF8C760120EE
:103910008876012080B58AB000AF7860EFF311831C
:103920004FF0200181F311887B612748FEF7DBFF10
:103930003861802279683869FEF788FFF860FB6893
:103940007B6201233B620BE03B6ADAB27B6A591C63
:10395000796262F07F02D2B21A703B6ADB093B6285
:103960003B6A7F2BF0D87B6A5A1C7A623A6AD2B2E1
:103970001A707B6AFB60FB68FB610023BB610BE094
:10398000BB69DAB2FB69591CF96162F07F02D2B2FD
:103990001A70BB69DB09BB61BB697F2BF0D8FB697F
:1039A0005A1CFA61BA69D2B21A70FB69FB601A221A
:1039B000F9683869FFF770F87B6983F3118800BFF5
:1039C0002837BD4680BD00BF8C76012080B483B00F
:1039D00000AF0346FB71FB7903F01F02074997F91B
:1039E00007305B09012000FA02F241F8232000BFF2
:1039F0000C37BD465DF8047B704700BF00E100E076
:103A000080B483B000AF03463960FB7197F907308B
:103A1000002B0BDA3B68DAB20C49FB7903F00F0399
:103A2000043B1201D2B20B441A7609E03B68DAB2C9
:103A3000074997F907301201D2B20B4483F80023EB
:103A400000BF0C37BD465DF8047B704700ED00E019
:103A500000E100E080B582B002AF104B1B680F4A56
:103A600043F001031360FCF76FFE00F047FB00F02A
:103A700043F8FEF78FFBFFF7E5F9002301930123DD
:103A800000930023822206490648FDF74EFAFDF70F
:103A9000DFFB01231846BD4680BD00BF001000E0DB
:103AA000404C0008A93A000880B582B000AF7860A9
:103AB0004FF4FA731846FDF793FB00F049F90B4BEE
:103AC0001B68002B0BD00A490A4800F01FF9652239
:103AD0000021074800F08AFC044B00221A604FF4D2
:103AE000FA731846FDF77CFBE9E700BF7477012005
:103AF00088780120004C004080B500AF00F0B6F897
:103B000000F004F800F064F800BF80BD80B588B014
:103B100000AF01214FF40030FCF716FF0121012016
:103B2000FCF7F2FE07F1180308220021184600F006
:103B30005DFC0C23BB6102233B770123FB7707F17C
:103B4000180319462048FCF727FD072202211E48CA
:103B5000FCF7B0FD072203211B48FCF7ABFD07F182
:103B6000080310220021184600F040FC4FF41653C1
:103B7000BB600023BB820C237B8200233B8200239B
:103B8000FB810023BB8107F1080319460F48FCF7AE
:103B90005DFF012240F225510C48FDF753F8262322
:103BA0003B7100237B7100237B710123FB713B1D63
:103BB0001846FCF70DFC01210448FDF701F800BF91
:103BC0002037BD4680BD00BF0000024000440040D9
:103BD00080B586B000AF01214FF40020FCF7B4FEA1
:103BE00001210420FCF790FE07F1100308220021B8
:103BF000184600F0FBFB4FF440633B6102233B752A
:103C00000123FB7507F1100319461648FCF7C4FCA5
:103C100008220A211348FCF74DFD08220B21114808
:103C2000FCF748FD3B4610220021184600F0DEFB61
:103C30004FF416533B600023BB810C237B81002390
:103C40003B810023FB800023BB803B46194606488E
:103C5000FCF7FCFE01210448FCF7B2FF00BF183757
:103C6000BD4680BD00080240004C004080B586B0D3
:103C700000AF01210120FCF747FE01210820FCF7DD
:103C800043FE01214FF48040FCF77EFE01233B758B
:103C90000023BB754FF480533B6100237B750023E9
:103CA000FB7507F1100319461648FCF775FC002355
:103CB0003B730023BB730123BB6000237B73002392
:103CC000FB7307F1080319460F48FCF765FC002158
:103CD0000020FCF779FE01233B6000233B710C239D
:103CE0007B710123BB713B461846FCF7D3FB0521D2
:103CF0000620FFF785FE0620FFF768FE00BF183795
:103D0000BD4680BD000C02400000024080B582B07C
:103D100000AF7860396012E000BF40217868FCF79E
:103D2000D9FF0346002BF8D03B681B78DBB29BB26F
:103D300019467868FCF764FF3B6801333B603B68D9
:103D40001B78DBB2002BE7D100BF0837BD4680BD32
:103D500080B500AF89498A48FFF7D8FF874989486D
:103D6000FFF7D4FF4FF4FA731846FDF739FA864B84
:103D70001B68002B16D08549854800F0D7FC034608
:103D8000002B0FD083497F48FFF7C0FF82497D4851
:103D9000FFF7BCFF652200217D4800F027FB7A4B2E
:103DA00000221A607D497648FFF7B0FF7B497548CD
:103DB000FFF7ACFF4FF4FA731846FDF711FA724B98
:103DC0001B68002B23D07149714800F0AFFC0346FB
:103DD000002B0CD072496B48FFF798FF6522002139
:103DE0006B4800F003FB684B00221A600FE0684943
:103DF0006448FFF78BFF66496248FFF787FF65223B
:103E00000021634800F0F2FA5F4B00221A60654916
:103E10005B48FFF77BFF63495A48FFF777FF4FF492
:103E2000FA731846FDF7DCF9574B1B68002B0BD0D3
:103E300057495448FFF76AFF65220021544800F0B3
:103E4000D5FA514B00221A6057494D48FFF75EFFE3
:103E500055494C48FFF75AFF4FF4FA731846FDF7DF
:103E6000BFF9494B1B68002B0BD049494548FFF768
:103E70004DFF65220021464800F0B8FA424B00226F
:103E80001A604A493E48FFF741FF48493D48FFF75D
:103E90003DFF4FF4FA731846FDF7A2F93A4B1B6841
:103EA000002B0BD03A493748FFF730FF652200213D
:103EB000374800F09BFA344B00221A603C493048E6
:103EC000FFF724FF3A492F48FFF720FF4FF4FA731A
:103ED0001846FDF785F92C4B1B68002B0BD02C499D
:103EE0002848FFF713FF65220021294800F07EFAD9
:103EF000254B00221A602F492148FFF707FF2D4963
:103F00002048FFF703FF4FF4FA731846FDF768F9EE
:103F10001D4B1B68002B0BD01D491A48FFF7F6FEFE
:103F2000652200211A4800F061FA174B00221A603E
:103F300021491348FFF7EAFE1F491248FFF7E6FE42
:103F40004FF4FA731846FDF74BF90F4B1B68002B23
:103F500012D00E490E4800F0E9FB0346002B0BD0AF
:103F600016490848FFF7D2FE65220021084800F0F4
:103F70003DFA054B00221A6000BF80BD7C4C000852
:103F800000440040004C004074770120844C00083D
:103F900088780120884C0008904C0008A84C000844
:103FA000B84C0008D04C0008F04C00082C4D00081C
:103FB000484D0008644D00087C4D0008844D000801
:103FC00080B500AFFFF708FA0120FCF7D5FAFFF73C
:103FD00045FA00BF80BD000080B582B000AF40F25E
:103FE00025512648FCF792FE0346002B41D023487A
:103FF000FCF718FE0346FB71FB790A2B02D0FB7914
:104000000D2B26D11E4B1B68002B32D01C4B1B687E
:104010005A1C1B490A601B4A0A21D154184B1B68C1
:104020005A1C17490A60174A0D21D154144B1B68BA
:104030001A4614491448FCF7DBF8114B1B68114A67
:104040000021D154114B01221A600D4B00221A603D
:104050000FE00B4B1B68642B02D1094B00221A6046
:10406000074B1B685A1C06490A600649FA79CA546C
:10407000FFE700BF0837BD4680BD00BF00440040D9
:10408000787701207C7701208878012074770120DF
:1040900080B500AF164BD3F88830154A43F470034F
:1040A000C2F88830134B1B68124A43F001031360B7
:1040B000104B00229A600F4B1B680E4A23F084734A
:1040C00023F4803313600B4B0B4A5A60094B1B6877
:1040D000084A23F480231360064B0022DA6000F0C4
:1040E00089F8034B4FF000629A6000BF80BD00BFAB
:1040F00000ED00E0003802401030002480B487B0AA
:1041000000AF00233B6100237B610223FB6000239F
:10411000BB6002237B60324B9B6803F00C033B6166
:104120003B69042B07D0082B09D0002B3DD12D4B28
:104130002D4A1A603DE02B4B2C4A1A6039E0284B7F
:104140005B689B0D03F00103BB60254B5B6803F0CC
:104150003F037B60BB68002B0CD0244A7B68B2FB1A
:10416000F3F31F4A52689209C2F3080202FB03F3F9
:104170007B610BE01C4A7B68B2FBF3F3184A526880
:104180009209C2F3080202FB03F37B61144B5B68E4
:104190001B0C03F0030301335B00FB607A69FB68CF
:1041A000B2FBF3F30F4A136003E00E4B0E4A1A60A2
:1041B00000BF0B4B9B681B0903F00F030C4AD35C39
:1041C000DBB23B61074B1A683B6922FA03F3054AED
:1041D000136000BF1C37BD465DF8047B704700BF0D
:1041E00000380240140000200024F40040787D01D3
:1041F0001800002080B483B000AF00237B60002350
:104200003B60364B1B68354A43F480331360334BB5
:104210001B6803F400333B607B6801337B603B68C1
:10422000002B03D17B68B3F5A04FF0D12B4B1B685B
:1042300003F40033002B02D001233B6001E0002394
:104240003B603B68012B42D1244B1B6C234A43F05B
:1042500080531364224B1B68214A43F4404313608C
:104260001E4B1E4A9B6893601C4B9B681B4A43F481
:1042700000439360194B9B68184A43F4A053936022
:10428000164B184A5A60154B1B68144A43F080734A
:10429000136000BF114B1B6803F00073002BF9D0B3
:1042A000114B40F205721A600C4B9B680B4A23F0CD
:1042B00003039360094B9B68084A43F00203936031
:1042C00000BF064B9B6803F00C03082BF9D100BF1D
:1042D0000C37BD465DF8047B704700BF00380240D4
:1042E0000070004019544007003C02400D488546CC
:1042F0000D480E490E4A002302E0D458C45004333E
:10430000C4188C42F9D30B4A0B4C002301E0136014
:104310000432A242FBD3FFF7BBFE00F011F8FFF717
:1043200099FBFEE70000022000000020540400205A
:10433000AC4D00085404002014790120FEE7000071
:1043400070B50D4E0D4D761BB61006D0002401340D
:1043500055F8043B9847A642F9D1094E094D761B02
:1043600000F0E2FBB61006D00024013455F8043BFF
:104370009847A642F9D170BDA04D0008A04D000895
:10438000A84D0008A04D0008032A70B414D940EAD3
:104390000105AD0704460B4622D11D682668AE42D2
:1043A0001946204603F1040304F1040418D1043A29
:1043B000032A20461946F0D8541E72B102780B78B1
:1043C0009A4208BF641806D00CE010F8012F11F8CB
:1043D000013F9A4206D1A142F7D1002070BC70473C
:1043E000541EEBE7D01A70BC704700BFF0B48607CC
:1043F00043D0541E002A3ED0CAB2034602E014F154
:10440000FF3438D303F8012B9D07F8D1032C2BD9A7
:10441000CDB245EA05250F2C45EA054516D9A4F18C
:1044200010073F0903F1200606EB071603F11002FF
:1044300042E9045542E902551032B242F8D104F083
:104440000F040137032C03EB07130DD91E46224638
:10445000043A032A46F8045BFAD8221F22F003022A
:104460000432134404F003042CB1C9B21C4403F811
:10447000011B9C42FBD1F0BC704714460346C5E7C4
:104480004FF0010C2DE9F041644600264FF0FF3556
:1044900033198B4200EB05070DD23F5D10F803E0A6
:1044A000BE452DD21E460124A3EB050C33198B42C9
:1044B00000EB0507F1D34FF00108C2F800C04446F5
:1044C00000264FF0FF3733198B4200EB070C0ED25A
:1044D0001CF804C010F803E0E64518D91E46012474
:1044E000A3EB070833198B4200EB070CF0D301371D
:1044F000681C874224BFC2F800803846BDE8F081BE
:104500000CD04FF0010C354664466644C0E70BD032
:104510004FF00108374644464644D4E7644512BF8D
:1045200001341E460124B3E7444512BF01341E4640
:104530000124C8E72DE9F04FADF2144D9146054630
:104540008B461046194603AA1C46FFF799FF03AB9A
:1045500080460DF20C4243F8044F9342FBD154B114
:10456000631E09F1FF3204A812F8011F40F8213040
:1045700013F1FF33F8D20399424649444846FFF706
:1045800003FF00286ED108F1FF3301934B448246AC
:10459000009323460746544658469A4607EB0A06B8
:1045A000321A00212844FBF7C3FE002855D1002E03
:1045B00053D0AB1904AA13F8013C52F823304BB185
:1045C00024B1039A9A4201D9AAEB02031F440024A2
:1045D0003046E3E7444523460AF1FF3C38BF4346F3
:1045E000634513D2FA1819F8030015F802E086455E
:1045F0002A4409EB030106D02BE011F801EF12F871
:10460000010F864525D101336345F6D3019B44450F
:10461000194680F08780FB18009AE85C1278824285
:104620002B447FD1009804F1FF3B06E010F801ED28
:1046300013F801CDE64503D111464A1E9345F5D145
:1046400001348C4270D8039C30462744AAEB040402
:10465000A4E7C8F101021744B8E700200DF2144D99
:10466000BDE8F08FA4EB0803434538BF4346013350
:1046700008F1FF37039309EB070358464FF0000A90
:10468000C34698460AEB0406321A00212844FBF779
:104690004FFE0028E1D1002EDFD0AB1904AA13F899
:1046A000013C52F82330A3BB611E8B4515D20AEBA7
:1046B0000B0219F80B3015F802C09C452A4409EB8F
:1046C0000B005B4606D027E010F801EF12F801CF8F
:1046D000E64521D101338B42F6D37B1C12D00AEB85
:1046E000070398F80000E95C884205EB03020FD14C
:1046F000434605E013F8010D12F8011D884207D169
:104700004B45F7D105EB0A000DF2144DBDE8F08FD3
:10471000039B9A443046B5E7CBF1010292449A4498
:104720003046AFE741468BE7E81997E72DE9F04FB0
:1047300002780E4685B0054609788AB3A1B1844651
:10474000741C0846012701E068B11C46904214BF62
:10475000002707F0010723461CF8012F13F8010B6F
:10476000002AF1D1F0B91FB1284605B0BDE8F08F9D
:10477000681C00F005F90746A0B1A41B012C16D057
:10478000254485422CBFA5EB00094FF001091F2CE1
:104790000FD9234632464946FFF7CCFE0546E3E7EC
:1047A0000029E1D00025284605B0BDE8F08F054678
:1047B000DAE703AA21463046FFF762FE03998046F6
:1047C000024631443046FFF7DFFD00284ED108F1A4
:1047D000FF330193F3188246054600934846B346DB
:1047E0006619321A00213844FBF7A2FD0028D9D1FE
:1047F000002ED7D0D045434638BF53469C4212D9ED
:104800005A191BF80310B85C81423A440BEB030CB5
:1048100006D072E01CF8010F12F8011F88426CD11B
:1048200001339C42F6D1019BD045194677D9EB184C
:10483000009AF85C127882423B4470D100980AF1E9
:10484000FF3906E010F801ED13F801CDE64503D17C
:1048500011464A1E4A45F5D10AF1010A8A454AD84D
:10486000039B30461D44A4EB030AB9E7A4EB0803FD
:10487000434538BF4346013308F1FF3A039306EB43
:104880000A0348460025B34699466619321A0021A4
:104890003844FBF74DFD002884D1002E82D04445DA
:1048A00014D908EB05021BF80830B85C98423A446A
:1048B0000BEB0801434606D027E011F801CF12F8B0
:1048C000010F844521D101339C42F6D1BAF1FF3F5B
:1048D00011D005EB0A0399F80020F95C91423B44A2
:1048E00019D14A4605E012F8010D13F8011D88425E
:1048F00011D15A45F7D13D4436E7C8F101021544BC
:104900001D444FF0000A30466AE7C8F10102154421
:104910001D443046B9E7039B30461D44B5E7414688
:104920009AE700BF024B13B1024800F005B8704788
:104930000000000045490008002301461A461846B9
:1049400000F092B838B50A4C0A4D641BA4100AD086
:1049500004F18043013B05EB8305013C55F8043924
:104960009847002CF9D1BDE8384000F0E3B800BF0B
:10497000AC4D0008A84D0008704700BF704700BF4D
:10498000C9B200F00303002943D07BB10378002BA8
:1049900067D099423CD0431C05E013F8012B002A54
:1049A0005DD08A4234D09A071846F6D170B40468B4
:1049B00041EA012646EA064686EA0405A5F10133E6
:1049C000A4F1013223EA050322EA0402134313F09F
:1049D000803F0FD150F8044F84EA0605A5F101325B
:1049E000A4F1013322EA050223EA0403134313F07E
:1049F000803FEFD0037843B1994202D106E08B4269
:104A000004D010F8013F002BF9D1184670BC704754
:104A100070475BB10378002BFAD0431C03E00278A7
:104A20000133002AF4D099071846F8D10268A2F1A0
:104A3000013323EA020313F0803F08D150F8042F1A
:104A4000A2F1013323EA020313F0803FF6D003788A
:104A5000002BDDD010F8013F002BFBD17047104632
:104A600070471846704700BF2DE9F8432B4D0646A6
:104A7000286898460F469146FFF77EFF284B1C6832
:104A8000D4F84831002B3DD05A681F2A0DDC02F1C2
:104A9000010C16BB0232C3F804C0286843F8227028
:104AA000FFF76CFF0020BDE8F8831E4B7BB34FF48B
:104AB000C870AFF30080034648B3D4F84821002102
:104AC000C0E900214FF0010CC4F848010A46C0F8C3
:104AD0008811C0F88C11002EDCD003EB8201012478
:104AE000C1F88890D3F8880194402043022EC3F87F
:104AF0008801C1F80881CDD1D3F88C110C43C3F8DB
:104B00008C41C7E704F5A673C4F84831BCE72868B0
:104B1000FFF734FF4FF0FF30C5E700BF500400201F
:104B20009C4D000800000000F8B500BFF8BC08BCB0
:104B30009E467047F8B500BFF8BC08BC9E4670475B
:104B400049444C45000000004E3D46726565525494
:104B50004F53204C6F616443656C6C20496E7465E3
:104B600072666163696E672C443D53544D3332461F
:104B70003430372D446973636F766572792C4F3DFD
:104B80004672656552544F53000000004923313589
:104B90003D5379735469636B0000000049444C45F0
:104BA0000000000053595354454D564945573A208B
:104BB000436F756C64206E6F74207265636F7264EE
:104BC000207461736B20696E666F726D6174696FBA
:104BD0006E2E204D6178696D756D206E756D626504
:104BE00072206F66207461736B73207265616368F5
:104BF00065642E0051220008C12100085465726DC1
:104C0000696E616C000000005254540053454747E0
:104C100045520000000000000000000000000000FD
:104C2000537973566965770030313233343536370E
:104C30003839414243444546F401000090010000E8
:104C400053494D373630305F5461736B00000000BC
:104C50002048583731315F52756E6E696E6720613A
:104C60006E6420776F726B696E67206F6B20666F62
:104C700072206E6F77200D0A0000000041540D0A6B
:104C8000000000004F4B00004F4B0D0A00000000D9
:104C90004C5445206D6F64756C6520636F6E6E6556
:104CA000637465640D0A000041542B434D51545404
:104CB00053544152540D0A004D515454207365729F
:104CC000766963652073746172740D0A00000000D8
:104CD00041542B434D515454414343513D302C22B8
:104CE000616E6B69745F333231220D0A000000007F
:104CF00041542B434D515454434F4E4E4543543D24
:104D0000302C227463703A2F2F746573742E6D6F7C
:104D10007371756974746F2E6F72673A31383833F6
:104D2000222C39302C310D0A0000000041542B4355
:104D30004D515454535542544F5049433D302C32F9
:104D4000342C310D0A000000536D6172745F496F9D
:104D5000545F5363616C652F4C6F616443656C6C89
:104D60000D0A000041542B434D5154545355423DBC
:104D7000302C342C312C310D0A00000048414949B7
:104D80000D0A00004C5445206D6F64756C6520530E
:104D90006574757020446F6E650D0A002800002050
:084DA00025490008D5010008B7
:044DA800B10100084D
:104DAC0000000000010203040102030406070809C5
:104DBC00AAAAAAAA007A030A0000000000000000B8
:104DCC000102030406070809000000001403002078
:104DDC007C030020E4030020000000000000000021
:104DEC0000000000000000000000000000000000B7
:104DFC0000000000000000000000000000000000A7
:104E0C000000000000000000000000000000000096
:104E1C000000000000000000000000000000000086
:104E2C000000000000000000000000000000000076
:104E3C000000000000000000000000000000000066
:104E4C000000000000000000000000000000000056
:104E5C000000000000000000000000000000000046
:104E6C000000000000000000000000000000000036
:104E7C0001000000000000000E33CDAB34126DE6D3
:104E8C00ECDE05000B00000000000000000000003C
:104E9C000000000000000000000000000000000006
:104EAC0000000000000000000000000000000000F6
:104EBC0000000000000000000000000000000000E6
:104ECC0000000000000000000000000000000000D6
:0451FC00F078012026
:04000005080042EDC0
:00000001FF
