:020000040800F2
:10000000000002203D1800088D1800088D18000817
:100010008D1800088D1800088D18000800000000D9
:100020000000000000000000000000005106000871
:100030008D1800080000000081060008E90600088D
:100040008D1800088D1800088D1800088D180008FC
:10005000000000008D1800088D1800088D18000899
:100060008D1800088D1800088D1800088D180008DC
:100070008D1800088D1800088D1800088D180008CC
:100080008D1800088D1800088D1800088D180008BC
:100090008D1800088D1800088D1800088D180008AC
:1000A0008D1800088D1800088D1800088D1800089C
:1000B0008D1800088D1800088D1800088D1800088C
:1000C0008D1800088D1800088D1800088D1800087C
:1000D0008D1800088D1800088D1800088D1800086C
:1000E0008D1800088D1800088D1800088D1800085C
:1000F0008D1800088D1800088D1800088D1800084C
:100100008D1800088D1800088D1800088D1800083B
:100110008D1800088D1800088D1800088D1800082B
:100120008D1800088D1800088D1800088D1800081B
:100130008D1800088D1800088D1800088D1800080B
:100140008D1800088D1800088D1800088D180008FB
:100150008D1800088D1800088D1800088D180008EB
:100160008D1800088D1800088D1800088D180008DB
:100170008D1800088D1800088D1800088D180008CB
:100180008D1800088D180008000000000000000015
:10019000000000000000000000000000000000005F
:0801A0008D1800088D180008FD
:1001B00010B5054C237833B9044B13B10448AFF3A1
:1001C00000800123237010BD2C04002000000000DB
:1001D000F419000808B5034B1BB103490348AFF3FA
:1001E000008008BD0000000030040020F419000861
:1001F000844641EA000313F003036DD1403A41D332
:1002000051F8043B40F8043B51F8043B40F8043BF0
:1002100051F8043B40F8043B51F8043B40F8043BE0
:1002200051F8043B40F8043B51F8043B40F8043BD0
:1002300051F8043B40F8043B51F8043B40F8043BC0
:1002400051F8043B40F8043B51F8043B40F8043BB0
:1002500051F8043B40F8043B51F8043B40F8043BA0
:1002600051F8043B40F8043B51F8043B40F8043B90
:1002700051F8043B40F8043B51F8043B40F8043B80
:10028000403ABDD2303211D351F8043B40F8043B20
:1002900051F8043B40F8043B51F8043B40F8043B60
:1002A00051F8043B40F8043B103AEDD20C3205D330
:1002B00051F8043B40F8043B043AF9D2043208D028
:1002C000D2071CBF11F8013B00F8013B01D30B889A
:1002D00003806046704700BF082A13D38B078DD078
:1002E00010F003038AD0C3F10403D21ADB071CBF4A
:1002F00011F8013B00F8013B80D331F8023B20F8B4
:10030000023B7BE7043AD9D3013A11F8013B00F8EC
:10031000013BF9D20B7803704B7843708B78837074
:100320006046704780B485B000AF786039607B6804
:100330005B68FB603B68FA685A60FB689A683B68D8
:100340009A60FB689B683A685A60FB683A689A60F2
:100350003B687A681A617B681B685A1C7B681A6064
:1003600000BF1437BD465DF8047B704780B485B08C
:1003700000AF78607B681B69FB607B685B687A68AC
:1003800092689A607B689B687A6852685A60FB68DA
:100390005B687A689A4203D17B689A68FB685A6006
:1003A0007B6800221A61FB681B685A1EFB681A6092
:1003B000FB681B6818461437BD465DF8047B704720
:1003C00080B586B000AF00237B61504B1B68002BCB
:1003D00040F091804E4B1B6801333B614C4A3B69B6
:1003E00013603B69002B1FD14A4B1B681B68002B15
:1003F00009D04FF0500383F31188BFF36F8FBFF321
:100400004F8F3B60FEE7434B1B68FB60424B1B6812
:10041000404A1360404AFB681360404B1B6801333D
:100420003E4A136000F0F0F83D4B1B683A699A426F
:100430004CD3384B1B681B68002B04D1384B4FF052
:10044000FF321A6042E0334B1B68DB68DB68BB603D
:10045000BB685B687B603A697B689A4203D2304A2A
:100460007B68136032E0BB6804331846FFF77EFFF9
:10047000BB689B6A002B04D0BB6818331846FFF793
:1004800075FFBB68184601F003F8BB68DB6A012200
:100490009A40244B1B681343224A1360BB68DA6AF4
:1004A00013469B0013449B001F4A1A44BB68043345
:1004B00019461046FFF736FFBB68DA6A1B4B1B680C
:1004C000DB6A9A42B5D301237B61B2E7174B1B6805
:1004D000DA6A154913469B0013449B000B441B68C2
:1004E000012B01D901237B61114B1B68002B07D025
:1004F00001237B6104E00F4B1B6801330D4A13603D
:100500007B6918461837BD4680BD00BF48050020EE
:1005100024050020D8040020DC0400203805002039
:1005200040050020280500204C040020480400203D
:10053000340500203005002080B586B000AF2C4B7C
:100540001B68002B03D02B4B01221A604CE0294B77
:1005500000221A60284B1B68FB60FB68B3FA83F328
:10056000FB72FB7AC3F11F037B6124497A6913464E
:100570009B0013449B000B441B68002B09D14FF0D8
:10058000500383F31188BFF36F8FBFF34F8F7B60EE
:10059000FEE77A6913469B0013449B00174A1344F5
:1005A0003B613B695B685A683B695A603B695A68C2
:1005B0003B6908339A4204D13B695B685A683B69DE
:1005C0005A603B695B68DB680D4A13600C4B1A6824
:1005D0000C4B1B689A4202D100F0FAFE04E0084B73
:1005E0001B68184600F010FF00BF1837BD4680BDDD
:1005F0004805002034050020280500204C04002078
:10060000480400204405002080B483B000AF0C4BA8
:100610001B681B68002B04D10A4B4FF0FF321A6095
:1006200008E0074B1B68DB68DB687B607B685B6806
:10063000044A136000BF0C37BD465DF8047B704769
:10064000D804002040050020000000000000000049
:10065000074B19680868B0E8F04F80F30988BFF3CA
:100660006F8F4FF0000080F311887047AFF3008068
:100670004804002000BF00BF000000000000000090
:10068000EFF30980BFF36F8F154B1A681EF0100F40
:1006900008BF20ED108A20E9F04F10602DE9090015
:1006A0004FF0500080F31188BFF34F8FBFF36F8F6F
:1006B000FFF742FF4FF0000080F3118809BC196872
:1006C0000868B0E8F04F1EF0100F08BFB0EC108AB9
:1006D00080F30988BFF36F8F704700BFAFF30080CE
:1006E0004804002000BF00BF80B582B000AF4FF0CB
:1006F000500383F31188BFF36F8FBFF34F8F7B607D
:1007000000F0ECFDFFF75CFE0346002B06D000F086
:1007100043FE084B4FF080521A6001E000F020FECB
:1007200000233B603B6883F3118800BF0837BD4658
:1007300080BD00BF04ED00E080B483B000AF214B6A
:100740007B607B6803221A617B6803225A617B68A5
:100750001D4A9A617B681D4ADA617B684FF48062AA
:100760001A627B6800229A627B6800225A627B6868
:100770000022DA627B68144A1A667B68144A5A6659
:100780007B6810229A667B6800221A677B680022C9
:10079000DA667B6800225A677B6807330D4A106867
:1007A00018607B680C4A106818609188927999806B
:1007B0009A717B6820229A7100BF0C37BD465DF8A4
:1007C000047B70477C4A00200C1A00084C0500206E
:1007D0004C090020181A00081C1A000880B58AB0BD
:1007E00000AFF860B9607A603C4B1B78002B01D1F8
:1007F000FFF7A2FFFA6813465B001344DB00603387
:10080000364A1344BB61BB68FB61BB691B693B6231
:10081000BB69DB687B6100237B623A6A7B699A4231
:100820002AD9BB699A683B6AD31A3B613A697B68EB
:10083000934228BF13463B61BB695A683B6A134425
:100840003A691946F869FFF7D3FC7A6A3B691344A1
:100850007B62FA693B691344FB617A683B69D31A8E
:100860007B603A6A3B6913443B62BB699B683A6AA6
:100870009A4201D100233B627A693B6AD31A3B61F9
:100880003A697B68934228BF13463B613B69002B62
:1008900018D0BB695A683B6A13443A691946F8692B
:1008A000FFF7A6FC7A6A3B6913447B62FA693B69ED
:1008B0001344FB617A683B69D31A7B603A6A3B69EF
:1008C00013443B627B6A002B02D0BB693A6A1A610F
:1008D0007B6A18462837BD4680BD00BF7C4A002091
:1008E00080B58AB000AFF860B9607A60BB687B629F
:1008F000FB685A1C13465B001344DB003F4A134459
:100900003B623B6A1B69FB613B6ADB68BB61FA695E
:10091000BB699A4254D83B6A9A68BB69D31A013BB7
:100920007B617A697B689A420FD33B6A5A68BB69DC
:1009300013447A68796A1846FFF75AFCBA697B68EB
:100940001A443B6ADA60012354E07A69FB69134474
:100950007B617A697B689A424BD33B6A9A68BB6930
:10096000D31A3B613A697B689A420ED93B6A5A684E
:10097000BB6913447A68796A1846FFF739FCBA698B
:100980007B681A443B6ADA6018E03B6A5A68BB69C4
:1009900013443A69796A1846FFF72AFC3B6A58689B
:1009A0007A6A3B69D1187A683B69D31A1A46FFF70D
:1009B0001FFC7A683B69D21A3B6ADA60012319E0AE
:1009C000FA69BB69D31A013B7B617A697B689A42F9
:1009D0000FD33B6A5A68BB6913447A68796A184630
:1009E000FFF706FCBA697B681A443B6ADA600123A8
:1009F00000E0002318462837BD4680BD7C4A002011
:100A000080B487B000AFF860B9607A6000233B61C2
:100A100002E03B6901333B61BA683B6913441B78D0
:100A2000002BF6D13A697B689A4201D97B683B6119
:100A30003B69FE2B06D8FB685A1CFA603A69D2B2B1
:100A40001A7011E0FB685A1CFA60FF221A70FB68EA
:100A50005A1CFA603A69D2B21A703B69190AFB68EB
:100A60005A1CFA60CAB21A7000237B610AE0BA68A5
:100A7000531CBB60FB68591CF96012781A707B69C3
:100A800001337B617A693B699A42F0D3FB6818466F
:100A90001C37BD465DF8047B704780B483B000AF5F
:100AA00078607B68043318460C37BD465DF8047BDC
:100AB000704780B582B000AFFB1C012219460120AF
:100AC000FFF78CFE03467B607B68002B44DDFB78E0
:100AD000042B1AD0042B06DC022B10D0022B11DCC5
:100AE000012B09D02DE0062B15D0062B10DB072B90
:100AF00014D0802B15D024E000F030FA31E000F063
:100B0000E9FA2EE000F0BAFB2BE000F0A3FB28E0AE
:100B100000F006FB25E000F09DFD22E000F07CFDEA
:100B20001FE0FB1C012219460120FFF757FE034678
:100B30007B607B68002B11DDFB78184600F0ECFC35
:100B40000CE0FB785BB2002B0ADAFB1C0122194691
:100B50000120FFF743FE03E000BF02E000BF00E01A
:100B600000BF00BF0837BD4680BD000080B58CB017
:100B700000AF01233B713B1D0133FB61FB69FB624D
:100B8000304B5B69BB620BE0BB6ADAB2FB6A591C93
:100B9000F96262F07F02D2B21A70BB6ADB09BB62F3
:100BA000BB6A7F2BF0D8FB6A5A1CFA62BA6AD2B2CF
:100BB0001A70FB6AFB61244B1B68BB61214BDB682D
:100BC000BA69D31A7B61FB697B627B693B620BE08C
:100BD0003B6ADAB27B6A591C796262F07F02D2B258
:100BE0001A703B6ADB093B623B6A7F2BF0D87B6A59
:100BF0005A1C7A623A6AD2B21A707B6AFB61FA694D
:100C00003B1DD31A1A463B1D19460120FFF768FE0B
:100C100003463B613B69002B09D00A4ABB69D3609C
:100C2000084B1B78013BDAB2064B1A7004E0054B07
:100C30005B690133034A53613B6918463037BD464F
:100C400080BD00BF68490020041000E080B58AB074
:100C500000AFF860B9607A60634B1B78012B10D04D
:100C6000614B1B78002B00F0A1805F4B1B78022B9F
:100C700009D1FFF77BFF5C4B1B78012B40F098807C
:100C800001E000BF00E000BF7B681F2B09D8564B76
:100C9000DA697B6822FA03F303F00103002B40F0CA
:100CA00089807B68172B07D8FB68013BFB607B685A
:100CB000DAB2FB681A703DE0BA68FB68D31AFB61D0
:100CC000FB697F2B12D9FB69DA09FB68013BFB60EA
:100CD000D2B2FB681A70FB69DBB2FA68013AFA60BB
:100CE00063F07F03DAB2FB681A7006E0FB68013B31
:100CF000FB60FB69DAB2FB681A707B687F2B12D944
:100D00007B68DA09FB68013BFB60D2B2FB681A70B2
:100D10007B68DBB2FA68013AFA6063F07F03DAB20B
:100D2000FB681A7006E0FB68013BFB607B68DAB287
:100D3000FB681A702D4B1B68BB612B4BDB68BA69D3
:100D4000D31A7B61BB687B627B693B620BE03B6AC9
:100D5000DAB27B6A591C796262F07F02D2B21A70F1
:100D60003B6ADB093B623B6A7F2BF0D87B6A5A1CEB
:100D70007A623A6AD2B21A707B6ABB60BA68FB6860
:100D8000D31A1A46F9680120FFF7AAFD03463B6112
:100D90003B69002B03D0144ABB69D3600BE0124BB4
:100DA0001B780133DAB2104B1A7004E000BF02E086
:100DB00000BF00E000BF0E4BD3F884200C4BD3F8EB
:100DC00088309A420BD0084B9B78002B07D1064BFA
:100DD00001229A70FFF76DFE034B00229A7000BF4C
:100DE0002837BD4680BD00BF68490020041000E0E0
:100DF0007C4A002080B584B000AF7860EFF31183A7
:100E00004FF0200181F31188FB600848FFF745FE91
:100E1000B8607A68B968B868FFF718FFFB6883F3B1
:100E2000118800BF1037BD4680BD00BF9849002023
:100E300080B588B000AF78603960EFF311834FF070
:100E4000200181F311887B611648FFF726FE386187
:100E50003B69FB60FB68FB613B68BB610BE0BB6906
:100E6000DAB2FB69591CF96162F07F02D2B21A70E2
:100E7000BB69DB09BB61BB697F2BF0D8FB695A1CDE
:100E8000FA61BA69D2B21A70FB69FB607A68F968D4
:100E90003869FFF7DBFE7B6983F3118800BF2037D9
:100EA000BD4680BD9849002080B58CB000AFF86089
:100EB000B9607A60EFF311834FF0200181F311885C
:100EC000FB612548FFF7E9FDB861BB697B617B6980
:100ED000FB62BB68BB620BE0BB6ADAB2FB6A591CFF
:100EE000F96262F07F02D2B21A70BB6ADB09BB62A0
:100EF000BB6A7F2BF0D8FB6A5A1CFA62BA6AD2B27C
:100F00001A70FB6A7B617B697B627B683B620BE0EA
:100F10003B6ADAB27B6A591C796262F07F02D2B214
:100F20001A703B6ADB093B623B6A7F2BF0D87B6A15
:100F30005A1C7A623A6AD2B21A707B6A7B61FA688A
:100F40007969B869FFF782FEFB6983F3118800BFF6
:100F50003037BD4680BD00BF9849002080B58CB0B9
:100F600000AF594B1B78002B40F0AA80564B012252
:100F70001A70EFF311834FF0200181F31188FB60A9
:100F80000A2252490120FFF7ABFCFB6883F311886A
:100F90000A20FFF72FFFEFF311834FF0200181F3B9
:100FA0001188BB604A48FFF778FD78607B683B603A
:100FB0003B68FB62444B5B68BB620BE0BB6ADAB226
:100FC000FB6A591CF96262F07F02D2B21A70BB6AE6
:100FD000DB09BB62BB6A7F2BF0D8FB6A5A1CFA6242
:100FE000BA6AD2B21A70FB6A3B603B687B62364BCE
:100FF0009B683B620BE03B6ADAB27B6A591C796200
:1010000062F07F02D2B21A703B6ADB093B623B6A34
:101010007F2BF0D87B6A5A1C7A623A6AD2B21A7075
:101020007B6A3B603B68FB61274B1B69BB610BE044
:10103000BB69DAB2FB69591CF96162F07F02D2B276
:101040001A70BB69DB09BB61BB697F2BF0D8FB69F8
:101050005A1CFA61BA69D2B21A70FB693B603B68EC
:101060007B6102233B610BE03B69DAB27B69591C6F
:10107000796162F07F02D2B21A703B69DB093B6191
:101080003B697F2BF0D87B695A1C7A613A69D2B2EE
:101090001A707B693B60182239687868FFF7D6FDC3
:1010A000BB6883F31188084B5B6A002B02D0064BA8
:1010B0005B6A984700F0E2F800F0CCF800F0CAFA5A
:1010C00000BF3037BD4680BD68490020241A0008A3
:1010D0009849002080B582B000AFEFF311834FF044
:1010E000200181F311887B600B48FFF7D6FC386044
:1010F0000A4B1B78002B07D00B2239683868FFF7A2
:10110000A5FD064B00221A707B6883F3118800BF8F
:101110000837BD4680BD00BF9849002068490020BF
:1011200080B58CB000AFEFF311834FF0200181F355
:101130001188FB604548FFF7B0FCB860BB687B6076
:101140007B68FB62424B5B68BB620BE0BB6ADAB256
:10115000FB6A591CF96262F07F02D2B21A70BB6A54
:10116000DB09BB62BB6A7F2BF0D8FB6A5A1CFA62B0
:10117000BA6AD2B21A70FB6A7B607B687B62344BBE
:101180009B683B620BE03B6ADAB27B6A591C79626E
:1011900062F07F02D2B21A703B6ADB093B623B6AA3
:1011A0007F2BF0D87B6A5A1C7A623A6AD2B21A70E4
:1011B0007B6A7B607B68FB61254B1B69BB610BE035
:1011C000BB69DAB2FB69591CF96162F07F02D2B2E5
:1011D0001A70BB69DB09BB61BB697F2BF0D8FB6967
:1011E0005A1CFA61BA69D2B21A70FB697B607B68DB
:1011F0007B6102233B610BE03B69DAB27B69591CDE
:10120000796162F07F02D2B21A703B69DB093B61FF
:101210003B697F2BF0D87B695A1C7A613A69D2B25C
:101220001A707B697B6018227968B868FFF70EFD39
:10123000FB6883F31188064B5B6A002B02D0044BDA
:101240005B6A984700BF3037BD4680BD9849002093
:101250006849002080B500AF074B1B6A002B08D0FF
:10126000054B1B6A5B68002B03D0034B1B6A5B6852
:10127000984700BF80BD00BF6849002090B583B08B
:1012800000AF144B1B6A002B19D0124B1B6A1B6852
:10129000002B14D00F4B1B6A1B689847C7E900014D
:1012A0003868D7E900124FF000034FF00004130034
:1012B00000241A4601460D20FFF7F6FD05E0064B17
:1012C0001B6819460C20FFF7B3FD00BF0C37BD4665
:1012D00090BD00BF68490020041000E080B586B0D2
:1012E00000AFEFF311834FF0200181F31188FB6011
:1012F0001948FFF7D2FBB860BB687B60174B1B68CF
:10130000C3F308033B607B687B613B683B610BE098
:101310003B69DAB27B69591C796162F07F02D2B213
:101320001A703B69DB093B613B697F2BF0D87B6915
:101330005A1C7A613A69D2B21A707B697B600222C8
:101340007968B868FFF782FCFB6883F3118800BFF7
:101350001837BD4680BD00BF9849002004ED00E06D
:1013600080B582B000AFEFF311834FF0200181F31D
:1013700011887B600748FFF790FB386003223968CB
:101380003868FFF763FC7B6883F3118800BF083778
:10139000BD4680BD9849002080B582B000AFEFF314
:1013A00011834FF0200181F311887B600748FFF71C
:1013B00074FB3860122239683868FFF747FC7B6895
:1013C00083F3118800BF0837BD4680BD98490020CF
:1013D00080B582B000AFEFF311834FF0200181F3AD
:1013E00011887B600748FFF758FB38601122396885
:1013F0003868FFF72BFC7B6883F3118800BF083740
:10140000BD4680BD9849002080B588B000AF7860A7
:10141000EFF311834FF0200181F311887B611A48AB
:10142000FFF73BFB38613B69FB60184B1B697A682F
:10143000D31A9B087B60FB68FB617B68BB610BE098
:10144000BB69DAB2FB69591CF96162F07F02D2B262
:101450001A70BB69DB09BB61BB697F2BF0D8FB69E4
:101460005A1CFA61BA69D2B21A70FB69FB60042295
:10147000F9683869FFF7EAFB7B6983F3118800BFDD
:101480002037BD4680BD00BF984900206849002034
:1014900080B588B000AF7860EFF311834FF0200182
:1014A00081F311887B611A48FFF7F7FA38613B69CD
:1014B000FB60184B1B697A68D31A9B087B60FB683A
:1014C000FB617B68BB610BE0BB69DAB2FB69591C4D
:1014D000F96162F07F02D2B21A70BB69DB09BB61AD
:1014E000BB697F2BF0D8FB695A1CFA61BA69D2B28A
:1014F0001A70FB69FB600622F9683869FFF7A6FBE2
:101500007B6983F3118800BF2037BD4680BD00BFD3
:10151000984900206849002080B58CB000AF034690
:10152000FB713B4B1B68002B6DD0394B1B68FB627A
:101530000023BB6208E0FB6A1B69FB62FB6A002BAD
:1015400007D0BB6A0133BB62FB79BA6A9A42F2D315
:1015500000E000BFFB6A002B55D0EFF311834FF082
:10156000200181F311887B612A48FFF796FA3861E0
:101570003B69FB60FB687B62FB793B620BE03B6A8B
:10158000DAB27B6A591C796262F07F02D2B21A70B9
:101590003B6ADB093B623B6A7F2BF0D87B6A5A1CB3
:1015A0007A623A6AD2B21A707B6AFB60FB68FB61AE
:1015B000FB6A9B68BB610BE0BB69DAB2FB69591C33
:1015C000F96162F07F02D2B21A70BB69DB09BB61BC
:1015D000BB697F2BF0D8FB695A1CFA61BA69D2B299
:1015E0001A70FB69FB60FB6A1B6880221946F86869
:1015F000FFF706FAF8601622F9683869FFF726FB4C
:101600007B6983F3118800BF3037BD4680BD00BFC2
:10161000904900209849002080B582B000AF0C4B63
:101620001B68002B0FD00A4B1B687B607B68DB6854
:10163000002B02D07B68DB6898477B681B697B6066
:101640007B68002BF2D100BF0837BD4680BD00BFCC
:101650009049002080B586B000AFEFF311834FF0C2
:10166000200181F31188FB601748FFF716FAB86074
:10167000BB687B607B687B61144B1B783B610BE034
:101680003B69DAB27B69591C796162F07F02D2B2A0
:101690001A703B69DB093B613B697F2BF0D87B69A2
:1016A0005A1C7A613A69D2B21A707B697B601B223C
:1016B0007968B868FFF7CAFAFB6883F3118800BF3E
:1016C0001837BD4680BD00BF9849002094490020CE
:1016D00080B400AFFEE7000080B500AF164BD3F832
:1016E0008830154A43F47003C2F88830134B1B68E6
:1016F000124A43F001031360104B00229A600F4B13
:101700001B680E4A23F0847323F4803313600B4B61
:101710000B4A5A60094B1B68084A23F48023136064
:10172000064B0022DA6000F00DF8034B4FF0006228
:101730009A6000BF80BD00BF00ED00E000380240AD
:101740001030002480B483B000AF00237B600023FE
:101750003B60364B1B68354A43F480331360334B90
:101760001B6803F400333B607B6801337B603B689C
:10177000002B03D17B68B3F5A04FF0D12B4B1B6836
:1017800003F40033002B02D001233B6001E000236F
:101790003B603B68012B42D1244B1B6C234A43F036
:1017A00080531364224B1B68214A43F44043136067
:1017B0001E4B1E4A9B6893601C4B9B681B4A43F45C
:1017C00000439360194B9B68184A43F4A0539360FD
:1017D000164B184A5A60154B1B68144A43F0807325
:1017E000136000BF114B1B6803F00073002BF9D08E
:1017F000114B40F205721A600C4B9B680B4A23F0A8
:1018000003039360094B9B68084A43F0020393600B
:1018100000BF064B9B6803F00C03082BF9D100BFF7
:101820000C37BD465DF8047B704700BF00380240AE
:101830000070004019544007003C02400D488546A6
:101840000D480E490E4A002302E0D458C450043318
:10185000C4188C42F9D30B4A0B4C002301E01360EF
:101860000432A242FBD3FFF737FF00F011F8FFF775
:101870002FFFFEE700000220000000202C040020C3
:10188000581A00082C040020484B0020FEE70000F6
:1018900070B50D4E0D4D761BB61006D000240134E8
:1018A00055F8043B9847A642F9D1094E094D761BDD
:1018B00000F0A0F8B61006D00024013455F8043B1F
:1018C0009847A642F9D170BD4C1A00084C1A00087E
:1018D000541A00084C1A0008024B13B1024800F0D9
:1018E00005B8704700000000F91800080023014601
:1018F0001A46184600F01EB838B50A4C0A4D641B4B
:10190000A4100AD004F18043013B05EB8305013CA0
:1019100055F804399847002CF9D1BDE8384000F05B
:101920006FB800BF581A0008541A0008704700BF6B
:10193000704700BF2DE9F8432B4D064628689846AE
:101940000F469146FFF7F2FF284B1C68D4F8483148
:10195000002B3DD05A681F2A0DDC02F1010C16BB8A
:101960000232C3F804C0286843F82270FFF7E0FF92
:101970000020BDE8F8831E4B7BB34FF4C870AFF373
:101980000080034648B3D4F848210021C0E9002173
:101990004FF0010CC4F848010A46C0F88811C0F89D
:1019A0008C11002EDCD003EB82010124C1F8889059
:1019B000D3F8880194402043022EC3F88801C1F86F
:1019C0000881CDD1D3F88C110C43C3F88C41C7E703
:1019D00004F5A673C4F84831BCE72868FFF7A8FFF0
:1019E0004FF0FF30C5E700BF28040020481A000868
:1019F00000000000F8B500BFF8BC08BC9E46704768
:0C1A0000F8B500BFF8BC08BC9E4670475B
:101A0C005465726D696E616C000000005254540094
:101A1C0053454747455200000000000000000000FD
:101A2C00000000005379735669657700303132330A
:101A3C00343536373839414243444546000000209E
:081A4C00D9180008D5010008BB
:041A5400B1010008D4
:101A580000000000EC02002054030020BC0300201A
:101A6800000000000000000000000000000000006E
:101A7800000000000000000000000000000000005E
:101A8800000000000000000000000000000000004E
:101A9800000000000000000000000000000000003E
:101AA800000000000000000000000000000000002E
:101AB800000000000000000000000000000000001E
:101AC800000000000000000000000000000000000E
:101AD80000000000000000000000000000000000FE
:101AE80000000000000000000000000000000000EE
:101AF80000000000000000000100000000000000DD
:101B08000E33CDAB34126DE6ECDE05000B000000A1
:101B180000000000000000000000000000000000BD
:101B280000000000000000000000000000000000AD
:101B3800000000000000000000000000000000009D
:101B4800000000000000000000000000000000008D
:0C1E78000000000000000000244B0020CF
:040000050800183D9A
:00000001FF
